:100000000C9462040C948A040C948A040C948A0460
:100010000C948A040C948A040C948A040C948A0428
:100020000C948A040C948A040C948A040C948A0418
:100030000C948A040C9446070C948A040C948A0449
:100040000C94A4060C948A040C9414070C94EE06E9
:100050000C948A040C9495070C948A040C948A04DA
:100060000C948A040C948A040000000023002600EB
:10007000290000000008000201000003040700003E
:1000800000000000000000000000250028002B00F8
:1000900000000000240027002A00040404040404D3
:1000A0000404020202020202030303030303010227
:1000B00004081020408001020408102001020408F6
:1000C0001020808080808080808080808080808000
:1000D0008080808080808080808080808080808020
:1000E000808080808080808080808081818181810B
:1000F00081818181818181818181818182828282EC
:1001000082828282828282828283838383838383C8
:1001100083838383848484848484848484848585A1
:100120008585858585858586868686868686868775
:100130008787878787878888888888888888898943
:10014000898989898A8A8A8A8A8A8A8B8B8B8B8B0E
:100150008B8C8C8C8C8C8C8D8D8D8D8D8E8E8E8ED3
:100160008E8E8F8F8F8F8F90909090909191919194
:100170009192929292929393939393949494949451
:100180009595959596969696969797979798989809
:100190009898999999999A9A9A9A9B9B9B9B9C9CBF
:1001A0009C9C9D9D9D9D9E9E9E9E9F9F9F9FA0A06F
:1001B000A0A0A1A1A1A1A2A2A2A3A3A3A3A4A4A41D
:1001C000A4A5A5A5A6A6A6A6A7A7A7A8A8A8A8A9C6
:1001D000A9A9AAAAAAAAABABABACACACACADADAD6D
:1001E000AEAEAEAFAFAFB0B0B0B0B1B1B1B2B2B20F
:1001F000B3B3B3B4B4B4B5B5B5B5B6B6B6B7B7B7AF
:10020000B8B8B8B9B9B9BABABABBBBBBBCBCBCBD4B
:10021000BDBDBEBEBEBFBFBFC0C0C0C1C1C1C2C2E6
:10022000C2C3C3C4C4C4C5C5C5C6C6C6C7C7C7C87C
:10023000C8C8C9C9C9CACACBCBCBCCCCCCCDCDCD13
:10024000CECECFCFCFD0D0D0D1D1D1D2D2D3D3D3A5
:10025000D4D4D4D5D5D5D6D6D7D7D7D8D8D8D9D938
:10026000DADADADBDBDBDCDCDDDDDDDEDEDEDFDFC8
:10027000E0E0E0E1E1E2E2E2E3E3E3E4E4E5E5E556
:10028000E6E6E7E7E7E8E8E8E9E9EAEAEAEBEBECE3
:10029000ECECEDEDEDEEEEEFEFEFF0F0F1F1F1F271
:1002A000F2F3F3F3F4F4F5F5F5F6F6F6F7F7F8F8FC
:1002B000F8F9F9FAFAFAFBFBFCFCFCFDFDFEFEFE88
:1002C000FFFF000000010101020203030304040513
:1002D0000505060607070708080909090A0A0A0B9F
:1002E0000B0C0C0C0D0D0E0E0E0F0F10101011112B
:1002F00012121213131314141515151616171717B7
:1003000018181819191A1A1A1B1B1C1C1C1D1D1D44
:100310001E1E1F1F1F2020202121222222232324D2
:100320002424252525262627272728282829292A61
:100330002A2A2B2B2B2C2C2C2D2D2E2E2E2F2F2FF3
:100340003030303131323232333333343434353586
:100350003636363737373838383939393A3A3A3B1A
:100360003B3B3C3C3D3D3D3E3E3E3F3F3F404040B1
:10037000414141424242434343444444454545464A
:1003800046464747474848484949494A4A4A4A4BE6
:100390004B4B4C4C4C4D4D4D4E4E4E4F4F4F4F5086
:1003A0005050515151525252535353535454545527
:1003B00055555556565657575757585858595959CD
:1003C000595A5A5A5B5B5B5B5C5C5C5C5D5D5D5E75
:1003D0005E5E5E5F5F5F5F60606060616161616221
:1003E00062626263636363646464646565656566D1
:1003F0006666666767676767686868686969696984
:100400006A6A6A6A6A6B6B6B6B6B6C6C6C6C6C6D3A
:100410006D6D6D6E6E6E6E6E6E6F6F6F6F6F7070F6
:1004200070707071717171717172727272727373B6
:10043000737373737474747474747575757575757A
:100440007576767676767676777777777777777844
:1004500078787878787879797979797979797A7A10
:100460007A7A7A7A7A7A7A7B7B7B7B7B7B7B7B7BE3
:100470007B7C7C7C7C7C7C7C7C7C7C7C7D7D7D7DB9
:100480007D7D7D7D7D7D7D7D7D7E7E7E7E7E7E7E95
:100490007E7E7E7E7E7E7E7E7E7E7F7F7F7F7F7F76
:1004A0007F7F7F7F7F7F7F7F7F7F7F7F7F7F7F7F5C
:1004B0007F7F7F7F7F7F7F7F7F7F7F7F7F7F7F7F4C
:1004C0007F7F7F7F7F7F7F7F7F7F7F7F7F7F7F7F3C
:1004D0007F7F7F7F7F7F7F7F7F7F7F7F7F7F7F7F2C
:1004E0007F7F7F7F7F7F7F7F7F7F7F7F7E7E7E7E20
:1004F0007E7E7E7E7E7E7E7E7E7E7E7E7D7D7D7D20
:100500007D7D7D7D7D7D7D7D7D7C7C7C7C7C7C7C22
:100510007C7C7C7C7B7B7B7B7B7B7B7B7B7B7A7A29
:100520007A7A7A7A7A7A7A79797979797979797835
:100530007878787878787777777777777777767647
:10054000767676767575757575757574747474745C
:100550007473737373737372727272727171717177
:10056000717170707070706F6F6F6F6F6E6E6E6E96
:100570006E6D6D6D6D6D6C6C6C6C6C6B6B6B6B6BB9
:100580006A6A6A6A6A6969696968686868676767E0
:10059000676766666666656565656464646463630B
:1005A00063636262626261616161606060605F5F3B
:1005B0005F5F5E5E5E5E5D5D5D5C5C5C5C5B5B5B6D
:1005C0005B5A5A5A595959595858585757575756A4
:1005D00056565555555554545453535353525252DD
:1005E0005151515050504F4F4F4F4E4E4E4D4D4D1B
:1005F0004C4C4C4B4B4B4A4A4A4A4949494848485B
:10060000474747464646454545444444434343429D
:1006100042424141414040403F3F3F3E3E3E3D3DE2
:100620003D3C3C3C3B3B3A3A3A393939383838372B
:100630003737363636353534343433333332323275
:1006400031313030302F2F2F2E2E2E2D2D2C2C2CC3
:100650002B2B2B2A2A2A2929282828272727262610
:10066000252525242424232322222222212120205F
:100670001F1F1F1E1E1D1D1D1C1C1C1B1B1A1A1AB2
:100680001919181818171717161615151514141305
:10069000131312121211111010100F0F0E0E0E0D57
:1006A0000D0C0C0C0B0B0A0A0A09090908080707AC
:1006B0000706060505050404030303020201010100
:1006C000000000FFFFFEFEFEFDFDFCFCFCFBFBFA54
:1006D000FAFAF9F9F8F8F8F7F7F6F6F6F5F5F5F4A9
:1006E000F4F3F3F3F2F2F1F1F1F0F0EFEFEFEEEEFD
:1006F000EEEDEDECECECEBEBEAEAEAE9E9E8E8E850
:10070000E7E7E7E6E6E5E5E5E4E4E3E3E3E2E2E2A2
:10071000E1E1E0E0E0DFDFDEDEDEDDDDDDDCDCDBF5
:10072000DBDBDADADAD9D9D8D8D8D7D7D7D6D6D545
:10073000D5D5D4D4D4D3D3D3D2D2D1D1D1D0D0D093
:10074000CFCFCFCECECDCDCDCCCCCCCBCBCBCACAE0
:10075000C9C9C9C8C8C8C7C7C7C6C6C6C5C5C5C42C
:10076000C4C4C3C3C2C2C2C1C1C1C0C0C0BFBFBF75
:10077000BEBEBEBDBDBDBCBCBCBBBBBBBABABAB9BC
:10078000B9B9B8B8B8B7B7B7B6B6B6B5B5B5B5B400
:10079000B4B4B3B3B3B2B2B2B1B1B1B0B0B0B0AF40
:1007A000AFAFAEAEAEADADADACACACACABABABAA7F
:1007B000AAAAAAA9A9A9A8A8A8A8A7A7A7A6A6A6B9
:1007C000A6A5A5A5A4A4A4A4A3A3A3A3A2A2A2A1F1
:1007D000A1A1A1A0A0A0A09F9F9F9F9E9E9E9E9D25
:1007E0009D9D9D9C9C9C9C9B9B9B9B9A9A9A9A9955
:1007F0009999999898989898979797979696969682
:1008000096959595959494949494939393939392A9
:1008100092929292919191919190909090908F8FCD
:100820008F8F8F8E8E8E8E8E8E8D8D8D8D8D8C8CEE
:100830008C8C8C8C8B8B8B8B8B8B8A8A8A8A8A8A0A
:100840008A89898989898989888888888888888720
:100850008787878787878686868686868686858534
:100860008585858585858584848484848484848441
:10087000848383838383838383838383828282824B
:10088000828282828282828282818181818181814F
:10089000818181818181818181818080808080804E
:1008A0008080808080808080808080808080808048
:1008B0008080808080808080808080808080808038
:1008C0008080D40711241FBECFEFD8E0DEBFCDBF9C
:1008D00012E0A0E0B1E0E6E3F0E202C005900D9284
:1008E000A236B107D9F725E0A2E6B2E001C01D9219
:1008F000AC36B207E1F714E0C2E6D4E004C02197B9
:10090000FE010E941310C136D107C9F70E943508B5
:100910000C9419100C940000CF93DF9390E0FC012D
:10092000E255FF4F249186569F4FFC018491882306
:10093000D1F090E0880F991FFC01E057FF4FA5917F
:10094000B491FC01EA57FF4FC591D491623071F424
:100950009FB7F8943C91822F809583238C93E881F4
:100960002E2B28839FBFDF91CF9108958FB7F894E6
:10097000EC912E2B2C938FBFF6CFAF92BF92CF92DC
:10098000DF92EF92FF920F931F93CF93DF936C014F
:100990007B018B01040F151FEB015E01AE18BF0830
:1009A000C017D10759F06991D601ED91FC910190E2
:1009B000F081E02DC6010995892B79F7C501DF91FA
:1009C000CF911F910F91FF90EF90DF90CF90BF904C
:1009D000AF900895FC01538D448D252F30E0842F76
:1009E00090E0821B930B541710F0CF960895019757
:1009F0000895FC01918D828D981761F0A28DAE0F44
:100A0000BF2FB11D5D968C91928D9F5F9F73928FCA
:100A100090E008958FEF9FEF0895FC01918D828DF6
:100A2000981731F0828DE80FF11D858D90E00895C3
:100A30008FEF9FEF0895FC01918D228D892F90E01B
:100A4000805C9F4F821B91098F73992708958FE8CF
:100A500092E00E941B0521E0892B09F420E0822FFF
:100A6000089580E090E0892B29F00E9427058111EC
:100A70000C9400000895FC01A48DA80FB92FB11D9E
:100A8000A35ABF4F2C91848D90E001968F739927C4
:100A9000848FA689B7892C93A089B1898C918370A2
:100AA00080648C93938D848D981306C00288F3899B
:100AB000E02D80818F7D80830895EF92FF920F93C8
:100AC0001F93CF93DF93EC0181E0888F9B8D8C8DFA
:100AD00098131AC0E889F989808185FF15C09FB7EE
:100AE000F894EE89FF896083E889F98980818370B1
:100AF000806480839FBF81E090E0DF91CF911F9160
:100B00000F91FF90EF900895F62E0B8D10E00F5F80
:100B10001F4F0F731127E02E8C8D8E110CC00FB656
:100B200007FCFACFE889F989808185FFF5CFCE01EE
:100B30000E943B05F1CFEB8DEC0FFD2FF11DE35A29
:100B4000FF4FF0829FB7F8940B8FEA89FB89808171
:100B50008062CFCFCF93DF93EC01888D8823B9F0EB
:100B6000AA89BB89E889F9898C9185FD03C08081B8
:100B700086FD0DC00FB607FCF7CF8C9185FFF2CF35
:100B8000808185FFEDCFCE010E943B05E9CFDF914B
:100B9000CF9108950F931F93DC014D915D916D915D
:100BA0007C91139714960D911D912D913C9117975F
:100BB000400F511F621F731F4D935D936D937C9384
:100BC0001397CB0197701896ED91FC91E80FF91FE0
:100BD00084911F910F910895CF93DF931F92CDB70A
:100BE000DEB780916203909163038F3F9807F1F025
:100BF000FC01E65AFC4F20812983019790936303FF
:100C00008093620389818093000187FD0BC08091EE
:100C100000018770806480937C0080917A008064FA
:100C200080937A000F90DF91CF9108958FEFEBCFF3
:100C30008091000187FF04C00E94EC0510926302BE
:100C40000895FC0101900020E9F73197AF01481B9E
:100C5000590BBC018FE892E00C94BD048F929F92D7
:100C6000AF92BF920F931F93CF93DF93CDB7DEB7B1
:100C7000A1970FB6F894DEBF0FBECDBF19A24230C8
:100C800008F44AE08E010F5D1F4F842E912CB12C89
:100C9000A12CA50194010E94D10DE62FB901CA0132
:100CA000EA30F4F4E05DD801EE938D01232B242B80
:100CB000252B79F790E080E0109719F0CD010E9484
:100CC0002106A1960FB6F894DEBF0FBECDBFDF910F
:100CD000CF911F910F91BF90AF909F908F900895EB
:100CE000E95CE1CF0C942106CF92DF92EF92FF9264
:100CF000CF93DF936C01990FEE08FF08F7FE19C040
:100D00006DE28FE892E00E945D05EC01662777278F
:100D1000CB016C197D098E099F094AE00E942E06BD
:100D20008C0F9D1FDF91CF91FF90EF90DF90CF90C0
:100D300008954AE0C701B601DF91CF91FF90EF908F
:100D4000DF90CF900C942E061F920F920FB60F9249
:100D500011242F933F938F939F93AF93BF938091D1
:100D60008B0290918C02A0918D02B0918E023091F5
:100D70008A0223E0230F2D3758F50196A11DB11DDE
:100D800020938A0280938B0290938C02A0938D0211
:100D9000B0938E028091860290918702A091880282
:100DA000B09189020196A11DB11D80938602909396
:100DB0008702A0938802B0938902BF91AF919F915F
:100DC0008F913F912F910F900FBE0F901F9018950C
:100DD00026E8230F0296A11DB11DD2CF1F920F92BC
:100DE0000FB60F9211242F933F934F935F936F93FE
:100DF0007F938F939F93AF93BF93EF93FF938FE86E
:100E000092E00E943B05FF91EF91BF91AF919F91BE
:100E10008F917F916F915F914F913F912F910F90A3
:100E20000FBE0F901F9018951F920F920FB60F9242
:100E300011242F938F939F93EF93FF93E0919F0241
:100E4000F091A0028081E091A502F091A60282FDBE
:100E50001BC090818091A8028F5F8F732091A9029F
:100E6000821741F0E091A802F0E0E157FD4F958F25
:100E70008093A802FF91EF919F918F912F910F90F6
:100E80000FBE0F901F9018958081F4CF1F920F9284
:100E90000FB60F9211242F933F938F939F93AF938D
:100EA000BF93EF93FF938091620291E08927809333
:100EB000620281112DC080916405E82FF0E0EE0FF1
:100EC000FF1FEC59FC4F208131818F5F80936405B7
:100ED000811118C0809166058927809366058091ED
:100EE000680590916905A0916A05B0916B0501961E
:100EF000A11DB11D8093680590936905A0936A05B3
:100F0000B0936B052C503F4F30938900209388009D
:100F1000FF91EF91BF91AF919F918F913F912F9151
:100F20000F900FBE0F901F9018951F920F920FB643
:100F30000F9211242F933F934F935F936F937F935F
:100F40008F939F93AF93BF93EF93FF93809163022F
:100F5000811119C080917A00806480937A0081E0C9
:100F600080936302FF91EF91BF91AF919F918F9119
:100F70007F916F915F914F913F912F910F900FBE95
:100F80000F901F901895E09100018091780090914A
:100F90007900EE0FFF0BE459FD4F918380830E948F
:100FA000EC0510926302DECFEFE8F2E013821282CA
:100FB00088EE93E0A0E0B0E084839583A683B783B6
:100FC0008DED91E09183808385EC90E09587848717
:100FD00084EC90E09787868780EC90E0918B808B03
:100FE00081EC90E0938B828B82EC90E0958B848BEC
:100FF00086EC90E0978B868B118E128E138E148E5A
:1010000010926405109265051092660510926705AE
:101010008FEF9FEF9093630380936203E0E5F3E02B
:10102000118210828FEF93E0938382831582148262
:101030008CEB92E0978386838AE090E091878087AB
:1010400082EC90E090934F0380934E03909345037E
:101050008093440390933B0380933A038CEC9CE091
:1010600090933103809330030895CF93DF93CDB7EE
:10107000DEB766970FB6F894DEBF0FBECDBF78948B
:1010800084B5826084BD84B5816084BD85B582608D
:1010900085BD85B5816085BD80916E00816080933E
:1010A0006E001092810080918100826080938100A7
:1010B00080918100816080938100809180008160B7
:1010C000809380008091B10084608093B100809112
:1010D000B00081608093B00080917A00846080933A
:1010E0007A0080917A00826080937A0080917A0001
:1010F000816080937A0080917A00806880937A0082
:101100001092C100E0919F02F091A00282E08083E2
:10111000E0919B02F0919C021082E0919D02F0917F
:101120009E0280E180831092A702E091A302F091D9
:10113000A40286E08083E091A102F091A202808166
:1011400080618083E091A102F091A2028081886099
:101150008083E091A102F091A20280818068808367
:10116000E091A102F091A20280818F7D80838BEEBD
:1011700091E00E9421068DEF91E00E94210680916E
:101180007A00886080937A0090E080E061E070E00F
:1011900020917E00AB01082E01C0440F0A94EAF7AB
:1011A000242B20937E0001968830910589F7809149
:1011B0007A00846080937A0080917A008D7F80939A
:1011C0007A0080917A008E7F80937A008FEF90E092
:1011D00090938302809382028091800080918100AD
:1011E000809188009091890080916F0061E089E092
:1011F0000E948C041092690298E190936A0282E046
:1012000080936B02909381008093800087EE91E041
:10121000A0E0B0E0EE24E394E092660290936502D1
:1012200080936402909387008093860089E1809385
:10123000810061E089E00E948C048091800090919F
:101240006B02892B8068809380002091640230912A
:101250006502A4EFB0E00E94F30D2AE09695879511
:10126000779567952A95D1F77093890060938800E8
:1012700080916A0290916602892B80938100E092AE
:101280006F0062E082E00E948C0462E083E00E94D2
:101290008C0462E084E00E948C049091650580914A
:1012A0006405981306C090916705809166059813B0
:1012B0005EC38091840290918502009709F039C441
:1012C00080918202909183029093850280938402A0
:1012D000E4E7F0E09491E0EBF0E08491ECE9F0E0F9
:1012E0002491222309F472C3992359F0933009F40D
:1012F00056C308F049C3913009F457C3923009F43A
:1013000058C3E22FF0E0EE0FFF1FE859FF4FA59101
:10131000B4919C91892321E090E009F420E02D878D
:101320009E87E0916203F0916303E730F1054CF48E
:101330003196F0936303E0936203E65AFC4F83E037
:1013400080838091720290917302209162033091A8
:101350006303273031055CF42F5F3F4F3093630305
:1013600020936203265A3C4F44E0D9014C932091CC
:10137000740230917502821B930B9C012A5F3F4FD0
:101380002D303105B8F097FD039695958795959585
:1013900087952091800230918102820F931F873FB1
:1013A000B7E29B070CF415C3E1E0F0E0F093810293
:1013B000E09380022091800230918102C90164EFA4
:1013C00071E00E94DC0F1B01C9016AE070E00E941D
:1013D000DC0FCB0162E370E00E94DC0F9C8B8B8BF7
:1013E00081010F5F1F4F1A8309838101000F111FB5
:1013F000F801E155FE4FC080D1800D2C000CEE08A5
:10140000FF082C01990F6608770829813A81220F7D
:10141000331F3E8B2D8BF901E155FE4F2081318129
:10142000032E000C440B550B2C193D094E095F0986
:10143000C301B2010E94CC0F22E330E040E050E053
:101440000E949F0DDA01C9018C0D9D1DAE1DBF1DAF
:101450008F87988BA98BBA8BF801EB57FE4FC08012
:10146000D1800D2C000CEE08FF08ED89FE89EB57AA
:10147000FE4F20813181032E000C440B550B2C199B
:101480003D094E095F09C301B2010E94CC0F22E35E
:1014900030E040E050E00E949F0DC20ED31EE41EDB
:1014A000F51EDA86C986F801E55AFE4F80809180E4
:1014B000092C000CAA08BB08ED89FE89E55AFE4FED
:1014C00020813181032E000C440B550B281939095A
:1014D0004A095B09C301B2010E94CC0F22E330E04C
:1014E00040E050E00E949F0DCA01B901680D791DCE
:1014F0008A1D9B1D28EE33E040E050E00E949F0DC6
:10150000CA01B9010E94A50E4B015C01F801E55D1D
:10151000FE4F20813181C901330FAA0BBB0B898398
:101520009A83AB83BC83ED89FE89E55DFE4F208104
:101530003181032E000C440B550B281B390B4A0B31
:101540005B0BC301B2010E94CC0F22E330E040E00C
:1015500050E00E949F0D89819A81AB81BC81820FEE
:10156000931FA41FB51F89839A83AB83BC83F801A3
:10157000EF5FFE4F20813181C901330FAA0BBB0BF6
:101580008D839E83AF83B8870D891E890F5F1E4FA1
:10159000D8012D913C91032E000C440B550B8D81ED
:1015A0009E81AF81B885281B390B4A0B5B0BC301A9
:1015B000B2010E94CC0F22E330E040E050E00E94F4
:1015C0009F0D8D819E81AF81B885820F931FA41FCF
:1015D000B51F8D839E83AF83B88780915003909110
:1015E000510320915203309153038C159D050CF04B
:1015F00001C2D0925103C0925003C601821B930BCB
:101600009093550380935403409056035090570392
:10161000052C000C660877088091520390915303C3
:101620008C01990F220B330B09871A872B873C8774
:101630002091580330915903032E000C440B550B95
:101640002419350946095709B601DD0C880B990B99
:10165000E984FA840B851C856E197F09800B910B38
:101660000E94CC0F2091500330915103032E000CA7
:10167000440B550B2E193F09400B510B0E949F0D37
:1016800069017A01C40CD51CE61CF71C20E030E08F
:1016900040E055E4C501B4010E945A0F20E030E05B
:1016A00040E85CE30E945A0F20E030E040E857E455
:1016B0000E945A0F0E94740E609336037093370392
:1016C00080933803909339030F851889C801012E40
:1016D000000CAA0BBB0B6DE0880F991FAA1FBB1F44
:1016E0006A95D1F780934A0390934B03A0934C03E0
:1016F000B0934D0385E0809F9001819F300D1124B0
:10170000A981BA812A9FC0012B9F900D3A9F900D0D
:101710001124092E000CAA0BBB0B7DE0880F991F2A
:10172000AA1FBB1F7A95D1F7809340039093410382
:10173000A0934203B09343039601AD81BE810E9402
:10174000F00F2B013C0182E393E00E94CA05A82F11
:10175000880FBB0BA058BF4FA30192010E94C90D77
:10176000672F782F892F992787FD9A9560937C02A0
:1017700070937D0280937E0290937F020D851E857B
:10178000012B09F469C080E092E00E94720680910A
:101790008002909181020E94740683E092E00E9490
:1017A000720685E092E00E947206C1010E947406F2
:1017B00083E092E00E9472068AE092E00E94720644
:1017C0008B899C890E9474068FE092E00E947206C9
:1017D00081E192E00E9472068F8598890E947406CA
:1017E0008FE092E00E94720681E292E00E9472060F
:1017F000C6010E9474068FE092E00E94720684E3A4
:1018000092E00E947206A5019401C501B4010E94F4
:10181000C70F882309F4FBC081E492E00E942106EF
:101820008FE092E00E9472068DE492E00E947206C0
:1018300089819A810E9474068FE092E00E9472066C
:1018400086E592E00E9472068D819E810E94740658
:101850008DEF91E00E9421060E94180680902C03D3
:1018600090902D03A0902E03B0902F03BB27B7FCC0
:10187000BA95AB2D9A2D892D20917C0230917D0255
:1018800040917E0250917F02281B390B4A0B5B0B63
:10189000A0913003B09131030E94BE0DC72ED82E07
:1018A000E92EFF24E7FCFA94C80CD91CEA1CFB1CA7
:1018B000C0922C03D0922D03E0922E03F0922F03BE
:1018C0008CE393E00E94CA05809046039090470302
:1018D000A0904803B090490340914A0350914B03B4
:1018E00060914C0370914D03840E951EA61EB71E89
:1018F0008092460390924703A0924803B092490316
:101900005527F7FC5A954F2D3E2D2D2DA82F880FCA
:10191000BB0B0E94C90D4BE0660F771F881F991FF4
:101920004A95D1F7860E971EA81EB91EC50197705D
:10193000E0914E03F0914F03E80FF91FE49190916D
:101940006505A92FB0E0AA0FBB1FAC59BC4F0E2EE6
:10195000000CFF0BED93FC939F5F90936505911135
:1019600006C08091670511E081278093670520E01C
:1019700030E0232B09F491CC0E942705882309F439
:101980008CCC0E94000089CC9730B1F09830D1F017
:10199000943009F0B6CC909180009F7D03C0909167
:1019A00080009F7790938000ACCC94B59F7794BDD6
:1019B000A8CC94B59F7DFBCF9091B0009F7790937A
:1019C000B0009FCC9091B0009F7DF9CF1E861D8600
:1019D000A8CC181619062CF49093810280938002EB
:1019E000E9CCB6EFEB2EB7E2FB2EF0928102E0924B
:1019F0008002E0CC09851A85021713070CF004CE8B
:101A0000D0925303C09252038C199D09F9CD7501F0
:101A10006401E894F7F82FEF3FEF4FE75FE7C70166
:101A2000B6010E94C70F81110DC02FEF3FEF4FE7A6
:101A30005FE7C701B6010E946F0E18161CF485E41B
:101A400092E0ECCE2FEF3FEF4FE75FE4C501B4012A
:101A50000E94550F18161CF489E492E0DFCE2FEF98
:101A60003FEF4FE75FECC501B4010E946F0E87FDA9
:101A7000F3CF20E030E0A901C501B4010E946F0E50
:101A800087FF09C06DE28FE892E00E945D05B7FA1A
:101A9000B094B7F8B0942AE037ED43EA5BE3C501B0
:101AA000B4010E94030E4B015C010E94740E6B0195
:101AB0007C010E94A30E9B01AC01C501B4010E94F0
:101AC000020E4B015C014AE0C701B6010E942E06DE
:101AD0006EE28FE892E00E945D0520E030E040E297
:101AE00051E4C501B4010E945A0F4B015C010E94F0
:101AF000740E6B01F12CE12C4AE0C701B6010E9483
:101B00002E06C701B6010E94A30E9B01AC01C501C0
:101B1000B4010E94020E20E030E040E251E40E9455
:101B20005A0F0E94740E90E080E04AE00E942E0658
:101B300077CE019790938502809384028FCE052EF5
:101B400097FB1EF400940E94B60D57FD07D00E942B
:101B5000D10D07FC03D04EF40C94B60D5095409572
:101B6000309521953F4F4F4F5F4F08959095809549
:101B7000709561957F4F8F4F9F4F08950E94F30D91
:101B8000A59F900DB49F900DA49F800D911D1124D1
:101B90000895B7FF0C94BE0D0E94BE0D821B930BDF
:101BA0000895A1E21A2EAA1BBB1BFD010DC0AA1F9E
:101BB000BB1FEE1FFF1FA217B307E407F50720F0B6
:101BC000A21BB30BE40BF50B661F771F881F991F31
:101BD0001A9469F760957095809590959B01AC017A
:101BE000BD01CF010895A29FB001B39FC001A39F83
:101BF000700D811D1124911DB29F700D811D112446
:101C0000911D08955058BB27AA270E941A0E0C94C4
:101C10001B0F0E940D0F38F00E94140F20F039F4B2
:101C20009F3F19F426F40C940A0F0EF4E095E7FB9D
:101C30000C94040FE92F0E942C0F58F3BA17620777
:101C400073078407950720F079F4A6F50C944E0FDE
:101C50000EF4E0950B2EBA2FA02D0B01B9019001C7
:101C60000C01CA01A0011124FF27591B99F0593F0B
:101C700050F4503E68F11A16F040A22F232F342F53
:101C80004427585FF3CF469537952795A795F040A1
:101C90005395C9F77EF41F16BA0B620B730B840BB6
:101CA000BAF09150A1F0FF0FBB1F661F771F881F6E
:101CB000C2F70EC0BA0F621F731F841F48F48795C6
:101CC00077956795B795F7959E3F08F0B0CF9395B8
:101CD000880F08F09927EE0F9795879508950E9431
:101CE000E00E08F481E008950E94340F88F09F57B9
:101CF00098F0B92F9927B751B0F0E1F0660F771F30
:101D0000881F991F1AF0BA95C9F714C0B13091F025
:101D10000E944E0FB1E008950C944E0F672F782F5C
:101D20008827B85F39F0B93FCCF3869577956795EA
:101D3000B395D9F73EF490958095709561957F4F56
:101D40008F4F9F4F0895E89409C097FB3EF49095FC
:101D50008095709561957F4F8F4F9F4F9923A9F084
:101D6000F92F96E9BB279395F69587957795679513
:101D7000B795F111F8CFFAF4BB0F11F460FF1BC057
:101D80006F5F7F4F8F4F9F4F16C0882311F096E9EA
:101D900011C0772321F09EE8872F762F05C0662398
:101DA00071F096E8862F70E060E02AF09A95660F51
:101DB000771F881FDAF7880F9695879597F908950A
:101DC000990F0008550FAA0BE0E8FEEF161617064C
:101DD000E807F907C0F012161306E407F50798F0B4
:101DE000621B730B840B950B39F40A2661F0232BCD
:101DF000242B252B21F408950A2609F4A140A69549
:101E00008FEF811D811D089597F99F6780E870E02D
:101E100060E008959FEF80EC089500240A94161660
:101E2000170618060906089500240A9412161306C8
:101E3000140605060895092E0394000C11F4882356
:101E400052F0BB0F40F4BF2B11F460FF04C06F5F72
:101E50007F4F8F4F9F4F089557FD9058440F551F48
:101E600059F05F3F71F04795880F97FB991F61F01C
:101E70009F3F79F087950895121613061406551F93
:101E8000F2CF4695F1DF08C0161617061806991FFF
:101E9000F1CF86957105610508940895E894BB27F4
:101EA00066277727CB0197F908950E94E00E08F482
:101EB0008FEF08950E946D0F0C941B0F0E940D0F61
:101EC00038F00E94140F20F0952311F00C94040FA9
:101ED0000C940A0F11240C944F0F0E942C0F70F3D6
:101EE000959FC1F3950F50E0551F629FF001729FBF
:101EF000BB27F00DB11D639FAA27F00DB11DAA1FCE
:101F0000649F6627B00DA11D661F829F2227B00D1A
:101F1000A11D621F739FB00DA11D621F839FA00DA5
:101F2000611D221F749F3327A00D611D231F849FF5
:101F3000600D211D822F762F6A2F11249F5750404C
:101F40009AF0F1F088234AF0EE0FFF1FBB1F661FC7
:101F5000771F881F91505040A9F79E3F510580F090
:101F60000C94040F0C944F0F5F3FE4F3983ED4F3AE
:101F7000869577956795B795F795E7959F5FC1F734
:101F8000FE2B880F911D9695879597F908950E94CD
:101F9000E00E880B990B0895DB018F939F930E94AD
:101FA000BE0DBF91AF91A29F800D911DA39F900D7B
:101FB000B29F900D1124089597FB072E16F40094FC
:101FC00007D077FD09D00E94FF0F07FC05D03EF433
:101FD000909581959F4F0895709561957F4F0895D5
:101FE0000E94F30D332312F48A1B9B0B0C94FA0FFF
:101FF0000E94F30DB7FF0895821B930B0895AA1B4F
:10200000BB1B51E107C0AA1FBB1FA617B70710F0E3
:10201000A61BB70B881F991F5A95A9F78095909515
:10202000BC01CD010895EE0FFF1F0590F491E02D46
:062030000994F894FFCFB3
:10203600FF0000010003000200070006000900037C
:10204600000400050008000300020002000100026F
:1020560000060007000800030009000A0004000843
:10206600000A000600040001000100060006000741
:1020760000070003000200010002000A0004000736
:10208600000500080009000A000A000100320028C5
:102096002358020A005A00F401E803D007F401208D
:1020A600031E005A006400C800BC021E00500064F3
:1020B600002C010A0046002C0164003200900164E5
:1020C600005000BC021E003C000A005000C8002C54
:1020D60001640028000A003C005A00C800460016A9
:1020E600004A011E002003C8001400C8006400B89E
:1020F6000114001E0050001400640090012C01140D
:102106000050005A0090011400000000005D05BD5B
:1021160004EA04AA051B05F9040D0548656C6C6FF5
:10212600204D6F7A7A69203231343235000D0A003B
:1021360044203D200061203D200078203D200009FC
:1021460000636172726965725F66726571203D2017
:10215600004C4452315F63616C69627261746564FC
:10216600203D20006D6F645F7370656564203D20BF
:10217600006E616E00696E66006F7666002020460E
:102186005251203D20006B6E6F623276616C203DAD
:02219600200027
:00000001FF
