:020000040000FA
:100000000C9462040C948A040C948A040C948A0460
:100010000C948A040C948A040C948A040C948A0428
:100020000C948A040C948A040C948A040C948A0418
:100030000C948A040C9405080C948A040C948A0489
:100040000C9463070C948A040C94D3070C94AD07AA
:100050000C948A040C9454080C948A040C948A041A
:100060000C948A040C948A040000000025002800E7
:100070002B0000000000240027002A0000000000E0
:1000800023002600290004040404040404040202DA
:100090000202020203030303030301020408102007
:1000A0004080010204081020010204081020000012
:1000B0000008000201000003040700000000000027
:1000C0000000808080808080808080808080808030
:1000D0008080808080808080808080808080808020
:1000E000808080808080808080808081818181810B
:1000F00081818181818181818181818182828282EC
:1001000082828282828282828283838383838383C8
:1001100083838383848484848484848484848585A1
:100120008585858585858586868686868686868775
:100130008787878787878888888888888888898943
:10014000898989898A8A8A8A8A8A8A8B8B8B8B8B0E
:100150008B8C8C8C8C8C8C8D8D8D8D8D8E8E8E8ED3
:100160008E8E8F8F8F8F8F90909090909191919194
:100170009192929292929393939393949494949451
:100180009595959596969696969797979798989809
:100190009898999999999A9A9A9A9B9B9B9B9C9CBF
:1001A0009C9C9D9D9D9D9E9E9E9E9F9F9F9FA0A06F
:1001B000A0A0A1A1A1A1A2A2A2A3A3A3A3A4A4A41D
:1001C000A4A5A5A5A6A6A6A6A7A7A7A8A8A8A8A9C6
:1001D000A9A9AAAAAAAAABABABACACACACADADAD6D
:1001E000AEAEAEAFAFAFB0B0B0B0B1B1B1B2B2B20F
:1001F000B3B3B3B4B4B4B5B5B5B5B6B6B6B7B7B7AF
:10020000B8B8B8B9B9B9BABABABBBBBBBCBCBCBD4B
:10021000BDBDBEBEBEBFBFBFC0C0C0C1C1C1C2C2E6
:10022000C2C3C3C4C4C4C5C5C5C6C6C6C7C7C7C87C
:10023000C8C8C9C9C9CACACBCBCBCCCCCCCDCDCD13
:10024000CECECFCFCFD0D0D0D1D1D1D2D2D3D3D3A5
:10025000D4D4D4D5D5D5D6D6D7D7D7D8D8D8D9D938
:10026000DADADADBDBDBDCDCDDDDDDDEDEDEDFDFC8
:10027000E0E0E0E1E1E2E2E2E3E3E3E4E4E5E5E556
:10028000E6E6E7E7E7E8E8E8E9E9EAEAEAEBEBECE3
:10029000ECECEDEDEDEEEEEFEFEFF0F0F1F1F1F271
:1002A000F2F3F3F3F4F4F5F5F5F6F6F6F7F7F8F8FC
:1002B000F8F9F9FAFAFAFBFBFCFCFCFDFDFEFEFE88
:1002C000FFFF000000010101020203030304040513
:1002D0000505060607070708080909090A0A0A0B9F
:1002E0000B0C0C0C0D0D0E0E0E0F0F10101011112B
:1002F00012121213131314141515151616171717B7
:1003000018181819191A1A1A1B1B1C1C1C1D1D1D44
:100310001E1E1F1F1F2020202121222222232324D2
:100320002424252525262627272728282829292A61
:100330002A2A2B2B2B2C2C2C2D2D2E2E2E2F2F2FF3
:100340003030303131323232333333343434353586
:100350003636363737373838383939393A3A3A3B1A
:100360003B3B3C3C3D3D3D3E3E3E3F3F3F404040B1
:10037000414141424242434343444444454545464A
:1003800046464747474848484949494A4A4A4A4BE6
:100390004B4B4C4C4C4D4D4D4E4E4E4F4F4F4F5086
:1003A0005050515151525252535353535454545527
:1003B00055555556565657575757585858595959CD
:1003C000595A5A5A5B5B5B5B5C5C5C5C5D5D5D5E75
:1003D0005E5E5E5F5F5F5F60606060616161616221
:1003E00062626263636363646464646565656566D1
:1003F0006666666767676767686868686969696984
:100400006A6A6A6A6A6B6B6B6B6B6C6C6C6C6C6D3A
:100410006D6D6D6E6E6E6E6E6E6F6F6F6F6F7070F6
:1004200070707071717171717172727272727373B6
:10043000737373737474747474747575757575757A
:100440007576767676767676777777777777777844
:1004500078787878787879797979797979797A7A10
:100460007A7A7A7A7A7A7A7B7B7B7B7B7B7B7B7BE3
:100470007B7C7C7C7C7C7C7C7C7C7C7C7D7D7D7DB9
:100480007D7D7D7D7D7D7D7D7D7E7E7E7E7E7E7E95
:100490007E7E7E7E7E7E7E7E7E7E7F7F7F7F7F7F76
:1004A0007F7F7F7F7F7F7F7F7F7F7F7F7F7F7F7F5C
:1004B0007F7F7F7F7F7F7F7F7F7F7F7F7F7F7F7F4C
:1004C0007F7F7F7F7F7F7F7F7F7F7F7F7F7F7F7F3C
:1004D0007F7F7F7F7F7F7F7F7F7F7F7F7F7F7F7F2C
:1004E0007F7F7F7F7F7F7F7F7F7F7F7F7E7E7E7E20
:1004F0007E7E7E7E7E7E7E7E7E7E7E7E7D7D7D7D20
:100500007D7D7D7D7D7D7D7D7D7C7C7C7C7C7C7C22
:100510007C7C7C7C7B7B7B7B7B7B7B7B7B7B7A7A29
:100520007A7A7A7A7A7A7A79797979797979797835
:100530007878787878787777777777777777767647
:10054000767676767575757575757574747474745C
:100550007473737373737372727272727171717177
:10056000717170707070706F6F6F6F6F6E6E6E6E96
:100570006E6D6D6D6D6D6C6C6C6C6C6B6B6B6B6BB9
:100580006A6A6A6A6A6969696968686868676767E0
:10059000676766666666656565656464646463630B
:1005A00063636262626261616161606060605F5F3B
:1005B0005F5F5E5E5E5E5D5D5D5C5C5C5C5B5B5B6D
:1005C0005B5A5A5A595959595858585757575756A4
:1005D00056565555555554545453535353525252DD
:1005E0005151515050504F4F4F4F4E4E4E4D4D4D1B
:1005F0004C4C4C4B4B4B4A4A4A4A4949494848485B
:10060000474747464646454545444444434343429D
:1006100042424141414040403F3F3F3E3E3E3D3DE2
:100620003D3C3C3C3B3B3A3A3A393939383838372B
:100630003737363636353534343433333332323275
:1006400031313030302F2F2F2E2E2E2D2D2C2C2CC3
:100650002B2B2B2A2A2A2929282828272727262610
:10066000252525242424232322222222212120205F
:100670001F1F1F1E1E1D1D1D1C1C1C1B1B1A1A1AB2
:100680001919181818171717161615151514141305
:10069000131312121211111010100F0F0E0E0E0D57
:1006A0000D0C0C0C0B0B0A0A0A09090908080707AC
:1006B0000706060505050404030303020201010100
:1006C000000000FFFFFEFEFEFDFDFCFCFCFBFBFA54
:1006D000FAFAF9F9F8F8F8F7F7F6F6F6F5F5F5F4A9
:1006E000F4F3F3F3F2F2F1F1F1F0F0EFEFEFEEEEFD
:1006F000EEEDEDECECECEBEBEAEAEAE9E9E8E8E850
:10070000E7E7E7E6E6E5E5E5E4E4E3E3E3E2E2E2A2
:10071000E1E1E0E0E0DFDFDEDEDEDDDDDDDCDCDBF5
:10072000DBDBDADADAD9D9D8D8D8D7D7D7D6D6D545
:10073000D5D5D4D4D4D3D3D3D2D2D1D1D1D0D0D093
:10074000CFCFCFCECECDCDCDCCCCCCCBCBCBCACAE0
:10075000C9C9C9C8C8C8C7C7C7C6C6C6C5C5C5C42C
:10076000C4C4C3C3C2C2C2C1C1C1C0C0C0BFBFBF75
:10077000BEBEBEBDBDBDBCBCBCBBBBBBBABABAB9BC
:10078000B9B9B8B8B8B7B7B7B6B6B6B5B5B5B5B400
:10079000B4B4B3B3B3B2B2B2B1B1B1B0B0B0B0AF40
:1007A000AFAFAEAEAEADADADACACACACABABABAA7F
:1007B000AAAAAAA9A9A9A8A8A8A8A7A7A7A6A6A6B9
:1007C000A6A5A5A5A4A4A4A4A3A3A3A3A2A2A2A1F1
:1007D000A1A1A1A0A0A0A09F9F9F9F9E9E9E9E9D25
:1007E0009D9D9D9C9C9C9C9B9B9B9B9A9A9A9A9955
:1007F0009999999898989898979797979696969682
:1008000096959595959494949494939393939392A9
:1008100092929292919191919190909090908F8FCD
:100820008F8F8F8E8E8E8E8E8E8D8D8D8D8D8C8CEE
:100830008C8C8C8C8B8B8B8B8B8B8A8A8A8A8A8A0A
:100840008A89898989898989888888888888888720
:100850008787878787878686868686868686858534
:100860008585858585858584848484848484848441
:10087000848383838383838383838383828282824B
:10088000828282828282828282818181818181814F
:10089000818181818181818181818080808080804E
:1008A0008080808080808080808080808080808048
:1008B0008080808080808080808080808080808038
:1008C0008080930811241FBECFEFD8E0DEBFCDBFDC
:1008D00011E0A0E0B1E0E2EEFEE102C005900D9271
:1008E000AE37B107D9F724E0AEE7B1E001C01D9201
:1008F000A43AB207E1F714E0C2E6D4E004C02197BD
:10090000FE010E94690FC136D107C9F70E94200974
:100910000C946F0F0C94000090E0FC01E255FF4F27
:100920002491FC01E656FF4F3491FC01EA57FF4F3A
:10093000E491EE23C1F1222339F02330E9F090F461
:10094000213001F1223011F1F0E0EE0FFF1FE458E9
:10095000FF4FA591B491EC91E32381E090E029F55C
:1009600080E008952730A9F02830C9F0243061F7DD
:10097000809180008F7D03C0809180008F7780936D
:100980008000E2CF84B58F7784BDDECF84B58F7DC4
:10099000FBCF8091B0008F778093B000D5CF80914E
:1009A000B0008F7DF9CF80E090E00895CF93DF9382
:1009B00090E0FC01E656FF4F24918A579F4FFC01BF
:1009C00084918823D1F090E0880F991FFC01EE58A4
:1009D000FF4FA591B491FC01E859FF4FC591D49107
:1009E000623071F49FB7F8943C91822F80958323F5
:1009F0008C93E8812E2B28839FBFDF91CF910895A0
:100A00008FB7F894EC912E2B2C938FBFF6CFAF922B
:100A1000BF92CF92DF92EF92FF920F931F93CF93EB
:100A2000DF936C017B018B01040F151FEB015E014D
:100A3000AE18BF08C017D10759F06991D601ED91E2
:100A4000FC910190F081E02DC6010995892B79F781
:100A5000C501DF91CF911F910F91FF90EF90DF9033
:100A6000CF90BF90AF900895FC01538D448D252FFA
:100A700030E0842F90E0821B930B541710F0CF9638
:100A8000089501970895FC01918D828D981761F06A
:100A9000A28DAE0FBF2FB11D5D968C91928D9F5F81
:100AA0009F73928F90E008958FEF9FEF0895FC0160
:100AB000918D828D981731F0828DE80FF11D858D13
:100AC00090E008958FEF9FEF0895FC01918D228DA6
:100AD000892F90E0805C9F4F821B91098F7399272B
:100AE000089589EA91E00E94650521E0892B09F4C7
:100AF00020E0822F089580E090E0892B29F00E9469
:100B0000710581110C9400000895FC01A48DA80FBB
:100B1000B92FB11DA35ABF4F2C91848D90E001963F
:100B20008F739927848FA689B7892C93A089B1895F
:100B30008C91837080648C93938D848D981306C000
:100B40000288F389E02D80818F7D80830895EF9264
:100B5000FF920F931F93CF93DF93EC0181E0888F77
:100B60009B8D8C8D98131AC0E889F989808185FF47
:100B700015C09FB7F894EE89FF896083E889F989E9
:100B800080818370806480839FBF81E090E0DF91EB
:100B9000CF911F910F91FF90EF900895F62E0B8D3E
:100BA00010E00F5F1F4F0F731127E02E8C8D8E11F9
:100BB0000CC00FB607FCFACFE889F989808185FF60
:100BC000F5CFCE010E948505F1CFEB8DEC0FFD2F07
:100BD000F11DE35AFF4FF0829FB7F8940B8FEA891B
:100BE000FB8980818062CFCFCF93DF93EC01888D2A
:100BF0008823B9F0AA89BB89E889F9898C9185FD98
:100C000003C0808186FD0DC00FB607FCF7CF8C9125
:100C100085FFF2CF808185FFEDCFCE010E94850553
:100C2000E9CFDF91CF9108950F931F93DC014D9190
:100C30005D916D917C91139714960D911D912D915D
:100C40003C911797400F511F621F731F4D935D9387
:100C50006D937C931397CB0197701896ED91FC914F
:100C6000E80FF91F84911F910F9108958F929F9221
:100C7000AF92BF92CF92DF92EF92FF92FC01808100
:100C8000918122813381861797070CF042C07183CE
:100C90006083CB01821B930B95838483C680D780AE
:100CA0000D2C000CEE08FF0882809380092C000CAC
:100CB000AA08BB0820853185032E000C440B550B78
:100CC0002C193D094E095F09072E000C880B990B62
:100CD000681979098A099B090E944A0F208131818C
:100CE000032E000C440B550B281939094A095B09DE
:100CF0000E94AB0CDA01C9018C0D9D1DAE1DBF1DFC
:100D0000FF90EF90DF90CF90BF90AF909F908F902B
:100D100008956217730714F673836283861B970B1B
:100D2000BBCF20919A0230919B022730310554F4B9
:100D30002F5F3F4F30939B0220939A022E563D4FD8
:100D4000F9018083E82FF0E0EE0FFF1FE058FE4F1F
:100D5000808191810895CF93DF931F92CDB7DEB745
:100D600080919A0290919B028F3F9807F1F0FC01CD
:100D7000EE56FD4F20812983019790939B0280932B
:100D80009A0289818093000187FD0BC08091000148
:100D90008770806480937C0080917A008064809367
:100DA0007A000F90DF91CF9108958FEFEBCF809174
:100DB000000187FF04C00E94AB0610927F010895D6
:100DC000FC0101900020E9F73197AF01481B590B56
:100DD000BC0189EA91E00C9407058F929F92AF9233
:100DE000BF920F931F93CF93DF93CDB7DEB7A19739
:100DF0000FB6F894DEBF0FBECDBF19A2423008F483
:100E00004AE08E010F5D1F4F842E912CB12CA12C36
:100E1000A50194010E94DD0CE62FB901CA01EA3058
:100E2000F4F4E05DD801EE938D01232B242B252BC8
:100E300079F790E080E0109719F0CD010E94E0066C
:100E4000A1960FB6F894DEBF0FBECDBFDF91CF9154
:100E50001F910F91BF90AF909F908F900895E95C84
:100E6000E1CF0C94E006CF92DF92EF92FF92CF9306
:100E7000DF936C01990FEE08FF08F7FE19C06DE2D1
:100E800089EA91E00E94A705EC0166277727CB014C
:100E90006C197D098E099F094AE00E94ED068C0FAE
:100EA0009D1FDF91CF91FF90EF90DF90CF9008953D
:100EB0004AE0C701B601DF91CF91FF90EF90DF903C
:100EC000CF900C94ED061F920F920FB60F92112443
:100ED0002F933F938F939F93AF93BF938091A501DF
:100EE0009091A601A091A701B091A8013091A40111
:100EF00023E0230F2D3758F50196A11DB11D209336
:100F0000A4018093A5019093A601A093A701B0939B
:100F1000A8018091A0019091A101A091A201B0919E
:100F2000A3010196A11DB11D8093A0019093A10181
:100F3000A093A201B093A301BF91AF919F918F9114
:100F40003F912F910F900FBE0F901F90189526E89C
:100F5000230F0296A11DB11DD2CF1F920F920FB683
:100F60000F9211242F933F934F935F936F937F932F
:100F70008F939F93AF93BF93EF93FF9389EA91E091
:100F80000E948505FF91EF91BF91AF919F918F9145
:100F90007F916F915F914F913F912F910F900FBE75
:100FA0000F901F9018951F920F920FB60F92112459
:100FB0002F938F939F93EF93FF93E091B901F0915B
:100FC000BA018081E091BF01F091C00182FD1BC098
:100FD00090818091C2018F5F8F732091C30182172E
:100FE00041F0E091C201F0E0E755FE4F958F80930C
:100FF000C201FF91EF919F918F912F910F900FBEA2
:101000000F901F9018958081F4CF1F920F920FB60A
:101010000F9211242F933F938F939F93AF93BF937E
:10102000EF93FF9380917E0191E0892780937E0169
:1010300081112DC080919C04E82FF0E0EE0FFF1F7E
:10104000E456FD4F208131818F5F80939C04811194
:1010500018C080919E04892780939E048091A004EB
:101060009091A104A091A204B091A3040196A11DA6
:10107000B11D8093A0049093A104A093A204B09307
:10108000A3042C503F4F3093890020938800FF9198
:10109000EF91BF91AF919F918F913F912F910F90C1
:1010A0000FBE0F901F9018951F920F920FB60F92C0
:1010B00011242F933F934F935F936F937F938F935D
:1010C0009F93AF93BF93EF93FF9380917F01811123
:1010D00019C080917A00806480937A0081E08093C7
:1010E0007F01FF91EF91BF91AF919F918F917F9180
:1010F0006F915F914F913F912F910F900FBE0F9085
:101100001F901895E09100018091780090917900EE
:10111000EE0FFF0BE058FE4F918380830E94AB06D9
:1011200010927F01DECFE9EAF1E01382128288EEAD
:1011300093E0A0E0B0E084839583A683B78385E045
:1011400091E09183808385EC90E09587848784EC9F
:1011500090E09787868780EC90E0918B808B81EC84
:1011600090E0938B828B82EC90E0958B848B86EC65
:1011700090E0978B868B118E128E138E148E1092A8
:101180009C0410929D0410929E0410929F048FEF75
:101190009FEF90939B0280939A02E8E8F2E011821D
:1011A00010828FEF93E0938382831582148226E16D
:1011B00030E03783268320E733E031872087EEE76E
:1011C000F2E01182108293838283158214822CEBC9
:1011D00032E0378326832AE030E031872087E4E756
:1011E000F2E011821082938382831582148240E19F
:1011F00057E25783468341E050E051874087EAE653
:10120000F2E01182108293838283158214825783C5
:1012100046833187208782EC90E090936902809327
:10122000680290935F0280935E02909355028093D0
:1012300054028CEC9CE090934B0280934A020895F8
:10124000CF93DF9300D000D0CDB7DEB7789484B5CC
:10125000826084BD84B5816084BD85B5826085BDB2
:1012600085B5816085BD80916E00816080936E0040
:101270001092810080918100826080938100809132
:1012800081008160809381008091800081608093E3
:1012900080008091B10084608093B1008091B000A3
:1012A00081608093B00080917A00846080937A009E
:1012B00080917A00826080937A0080917A008160C8
:1012C00080937A0080917A00806880937A001092EF
:1012D000C100E091B901F091BA0182E08083E09110
:1012E000B501F091B6011082E091B701F091B8011B
:1012F00080E180831092C101E091BD01F091BE01B7
:1013000086E08083E091BB01F091BC018081806127
:101310008083E091BB01F091BC0180818860808373
:10132000E091BB01F091BC01808180688083E091F5
:10133000BB01F091BC0180818F7D808383E191E0CE
:101340000E94E0068FE191E00E94E00680917A0021
:10135000886080937A0090E080E061E070E0209106
:101360007E00AB01082E01C0440F0A94EAF7242B3B
:1013700020937E0001968830910589F780917A004C
:10138000846080937A0080917A008D7F80937A00C8
:1013900080917A008E7F80937A008FEF90E0909317
:1013A0009D0180939C0180918000809181008091BB
:1013B00088009091890080916F0061E089E00E942F
:1013C000D6041092950198E19093960182E0809363
:1013D0009701909381008093800087EE91E0A0E0D8
:1013E000B0E021E0209392019093910180939001CD
:1013F000909387008093860089E18093810061E06B
:1014000089E00E94D6048091800090919701892BF9
:101410008068809380002091900130919101A4EF29
:10142000B0E00E94FF0C1AE0969587957795679536
:101430001A95D1F770938900609388008091960186
:1014400090919201892B8093810031E030936F005D
:1014500062E082E00E94D60462E083E00E94D6044B
:1014600062E084E00E94D60490919D0480919C04E7
:10147000981306C090919F0480919E049813C6C152
:1014800080919E0190919F01009709F05EC280912A
:101490009C0190919D0190939F0180939E0182E019
:1014A0000E948C049A83898380E00E949106BC018B
:1014B00088E892E00E9436069C838B8381E00E943C
:1014C0009106BC018EE792E00E9436067C0182E024
:1014D0000E9491061C01BC0184E792E00E9436063E
:1014E000BC01990F880B990B0E94230E20E030E07D
:1014F0004AE754E40E94800D2B013C0120E030E0DB
:1015000040E055E40E94D80E20E030E040E85CE383
:101510000E94D80E20E030E040E857E40E94D80E48
:101520000E94F20D60935002709351028093520218
:101530009093530284E00E949106BC018AE692E0F7
:101540000E9436068C0183E00E949106BC018AE667
:1015500092E00E9436066C0183E00E948C04892B85
:1015600001F588E491EEAAEDB0E0809350029093EB
:101570005102A0935202B0935302F2E0CF2ED12C2D
:1015800001E010E0A8E44A2EA1EE5A2EAAED6A2E40
:10159000A0E47A2EB8E9EB2EF12CACE5B0E0BC83E8
:1015A000AB832B813C81C901032E000CAA0BBB0B22
:1015B0006DE0880F991FAA1FBB1F6A95D1F7809312
:1015C000640290936502A0936602B0936702A5E05F
:1015D000C901A89F9001A99F300D1124209FC0012F
:1015E000219F900D309F900D1124092E000CAA0B05
:1015F000BB0B7DE0880F991FAA1FBB1F7A95D1F7FF
:1016000080935A0290935B02A0935C02B0935D02B8
:101610009701D6010E945A0F4B015C018CE492E0C5
:101620000E941406A82F880FBB0BA058BF4FA5011E
:1016300094010E94D50C672F782F892F992787FD59
:101640009A95609398017093990180939A01909371
:101650009B0129813A81232B09F44DC082E291E05C
:101660000E9431078B819C810E94330782E391E0C5
:101670000E94310784E391E00E943107C7010E9474
:10168000330782E391E00E94310787E491E00E94F2
:101690003107A3019201C301B2010E94450F8823C3
:1016A00009F4C1C084E591E00E94E00682E391E084
:1016B0000E94310780E691E00E943107C1010E943B
:1016C000330782E391E00E94310788E691E00E94AF
:1016D0003107C8010E94330782E391E00E9431077D
:1016E00081E791E00E943107C6010E9433078FE134
:1016F00091E00E94E0060E94D706809046029090FA
:101700004702A0904802B0904902BB27B7FCBA95A7
:10171000AB2D9A2D892D20919801309199014091FE
:101720009A0150919B01281B390B4A0B5B0BA0912E
:101730004A02B0914B020E94CA0CC72ED82EE92E45
:10174000FF24E7FCFA94C80CD91CEA1CFB1CC092CD
:101750004602D0924702E0924802F092490286E5A2
:1017600092E00E9414068090600290906102A09026
:101770006202B090630240916402509165026091F0
:10178000660270916702840E951EA61EB71E809297
:10179000600290926102A0926202B09263025527A9
:1017A000F7FC5A954F2D3E2D2D2DA82F880FBB0BE2
:1017B0000E94D50C4BE0660F771F881F991F4A9532
:1017C000D1F7860E971EA81EB91EC5019770E0912D
:1017D0006802F0916902E80FF91FE49180919D047D
:1017E000A82FB0E0AA0FBB1FA456BD4F0E2E000CB1
:1017F000FF0BED93FC938F5F80939D04811106C0D6
:1018000080919F0431E0832780939F0480E090E0E3
:10181000892B09F429CE0E947105882309F424CE6E
:101820000E94000021CE53014201E894B7F82FEF47
:101830003FEF4FE75FE7C501B4010E94450F8111FB
:101840000DC02FEF3FEF4FE75FE7C501B4010E94E6
:101850007B0D18161CF488E591E026CF2FEF3FEFA3
:101860004FE75FE4C301B2010E94D30E18161CF4C7
:101870008CE591E019CF2FEF3FEF4FE75FECC3010D
:10188000B2010E947B0D87FDF3CF20E030E0A9017B
:10189000C301B2010E947B0D87FF09C06DE289EA96
:1018A00091E00E94A70577FA709477F870942AE087
:1018B00037ED43EA5BE3C301B2010E940F0D2B0138
:1018C0003C010E94F20D4B015C010E94210E9B0124
:1018D000AC01C301B2010E940E0D2B013C014AE094
:1018E000C501B4010E94ED066EE289EA91E00E9412
:1018F000A70520E030E040E251E4C301B2010E94BC
:10190000D80E2B013C010E94F20D4B01B12CA12CF1
:101910004AE0C501B4010E94ED06C501B4010E9470
:10192000210E9B01AC01C301B2010E940E0D20E00B
:1019300030E040E251E40E94D80E0E94F20D90E0A7
:1019400080E04AE00E94ED06B1CE019790939F019E
:1019500080939E01D2CE052E97FB1EF400940E9428
:10196000C20C57FD07D00E94DD0C07FC03D04EF4DB
:101970000C94C20C50954095309521953F4F4F4F98
:101980005F4F089590958095709561957F4F8F4F2B
:101990009F4F08950E94FF0CA59F900DB49F900D3E
:1019A000A49F800D911D11240895B7FF0C94CA0CBB
:1019B0000E94CA0C821B930B0895A1E21A2EAA1B47
:1019C000BB1BFD010DC0AA1FBB1FEE1FFF1FA217EF
:1019D000B307E407F50720F0A21BB30BE40BF50BEC
:1019E000661F771F881F991F1A9469F76095709575
:1019F000809590959B01AC01BD01CF010895A29FF8
:101A0000B001B39FC001A39F700D811D1124911DD2
:101A1000B29F700D811D1124911D08955058BB2750
:101A2000AA270E94260D0C94990E0E948B0E38F066
:101A30000E94920E20F039F49F3F19F426F40C9482
:101A4000880E0EF4E095E7FB0C94820EE92F0E94BD
:101A5000AA0E58F3BA17620773078407950720F098
:101A600079F4A6F50C94CC0E0EF4E0950B2EBA2F5B
:101A7000A02D0B01B90190010C01CA01A001112494
:101A8000FF27591B99F0593F50F4503E68F11A1640
:101A9000F040A22F232F342F4427585FF3CF4695D1
:101AA00037952795A795F0405395C9F77EF41F16F3
:101AB000BA0B620B730B840BBAF09150A1F0FF0FBD
:101AC000BB1F661F771F881FC2F70EC0BA0F621FA9
:101AD000731F841F48F4879577956795B795F79599
:101AE0009E3F08F0B0CF9395880F08F09927EE0F2E
:101AF0009795879508950E945E0E08F481E00895F9
:101B00000E94940D0C94990E0E94920E58F00E941F
:101B10008B0E40F029F45F3F29F00C94820E511196
:101B20000C94CD0E0C94880E0E94AA0E68F3992393
:101B3000B1F3552391F3951B550BBB27AA276217C9
:101B40007307840738F09F5F5F4F220F331F441FD6
:101B5000AA1FA9F335D00E2E3AF0E0E832D091500A
:101B60005040E695001CCAF72BD0FE2F29D0660FF7
:101B7000771F881FBB1F261737074807AB07B0E83A
:101B800009F0BB0B802DBF01FF2793585F4F3AF040
:101B90009E3F510578F00C94820E0C94CD0E5F3F61
:101BA000E4F3983ED4F3869577956795B795F795C6
:101BB0009F5FC9F7880F911D9695879597F90895AE
:101BC000E1E0660F771F881FBB1F6217730784074A
:101BD000BA0720F0621B730B840BBA0BEE1F88F759
:101BE000E09508950E94B20E88F09F5798F0B92FA3
:101BF0009927B751B0F0E1F0660F771F881F991F42
:101C00001AF0BA95C9F714C0B13091F00E94CC0E09
:101C1000B1E008950C94CC0E672F782F8827B85F19
:101C200039F0B93FCCF3869577956795B395D9F799
:101C30003EF490958095709561957F4F8F4F9F4FA3
:101C40000895E89409C097FB3EF4909580957095AF
:101C500061957F4F8F4F9F4F9923A9F0F92F96E9F8
:101C6000BB279395F695879577956795B795F1116D
:101C7000F8CFFAF4BB0F11F460FF1BC06F5F7F4F0A
:101C80008F4F9F4F16C0882311F096E911C077231C
:101C900021F09EE8872F762F05C0662371F096E825
:101CA000862F70E060E02AF09A95660F771F881FF4
:101CB000DAF7880F9695879597F90895990F000898
:101CC000550FAA0BE0E8FEEF16161706E807F9070E
:101CD000C0F012161306E407F50798F0621B730BA9
:101CE000840B950B39F40A2661F0232B242B252B2A
:101CF00021F408950A2609F4A140A6958FEF811DCD
:101D0000811D089597F99F6780E870E060E008956D
:101D10009FEF80EC089500240A9416161706180603
:101D20000906089500240A941216130614060506DF
:101D30000895092E0394000C11F4882352F0BB0F70
:101D400040F4BF2B11F460FF04C06F5F7F4F8F4FD3
:101D50009F4F089557FD9058440F551F59F05F3F0E
:101D600071F04795880F97FB991F61F09F3F79F0BD
:101D700087950895121613061406551FF2CF46953F
:101D8000F1DF08C0161617061806991FF1CF8695C1
:101D90007105610508940895E894BB2766277727A5
:101DA000CB0197F908950E945E0E08F48FEF089515
:101DB0000E94EB0E0C94990E0E948B0E38F00E943C
:101DC000920E20F0952311F00C94820E0C94880E44
:101DD00011240C94CD0E0E94AA0E70F3959FC1F3AE
:101DE000950F50E0551F629FF001729FBB27F00DC9
:101DF000B11D639FAA27F00DB11DAA1F649F66271E
:101E0000B00DA11D661F829F2227B00DA11D621F6C
:101E1000739FB00DA11D621F839FA00D611D221F26
:101E2000749F3327A00D611D231F849F600D211D0A
:101E3000822F762F6A2F11249F5750409AF0F1F08D
:101E400088234AF0EE0FFF1FBB1F661F771F881FF6
:101E500091505040A9F79E3F510580F00C94820E9E
:101E60000C94CD0E5F3FE4F3983ED4F386957795BE
:101E70006795B795F795E7959F5FC1F7FE2B880F9C
:101E8000911D9695879597F908950E945E0E880B8F
:101E9000990B0895DB018F939F930E94CA0CBF9109
:101EA000AF91A29F800D911DA39F900DB29F900DA9
:101EB000112408950E94FF0C332312F48A1B9B0BFC
:101EC0000C94640F0E94FF0CB7FF0895821B930BC4
:101ED0000895EE0FFF1F0590F491E02D0994F894FA
:101EE000FFCFFF00000000A70507053405F40565D6
:101EF000054305570548656C6C6F204D6F7A7A690C
:101F0000000D0A00636172726965725F66726571C5
:101F1000203D200009004C4452315F63616C6962CE
:101F20007261746564203D20006D6F645F7370653D
:101F30006564203D20006E616E00696E66006F76FC
:101F400066004C445232203D200020204652512051
:101F50003D20006B6E6F623276616C203D20000088
:107800000C94343C0C94513C0C94513C0C94513CE1
:107810000C94513C0C94513C0C94513C0C94513CB4
:107820000C94513C0C94513C0C94513C0C94513CA4
:107830000C94513C0C94513C0C94513C0C94513C94
:107840000C94513C0C94513C0C94513C0C94513C84
:107850000C94513C0C94513C0C94513C0C94513C74
:107860000C94513C0C94513C11241FBECFEFD8E036
:10787000DEBFCDBF11E0A0E0B1E0ECE9FFE702C060
:1078800005900D92A230B107D9F712E0A2E0B1E065
:1078900001C01D92AD30B107E1F70E942D3D0C945F
:1078A000CC3F0C94003C982F959595959595959582
:1078B000905D8F708A307CF0282F295A8091C0000B
:1078C00085FFFCCF9093C6008091C00085FFFCCF60
:1078D0002093C6000895282F205DF0CF982F809127
:1078E000C00085FFFCCF9093C6000895EF92FF92F1
:1078F0000F931F93EE24FF2487018091C00087FD22
:1079000017C00894E11CF11C011D111D81E4E8164B
:1079100082E4F8068FE0080780E0180770F3E09132
:107920000401F091050109958091C00087FFE9CF1E
:107930008091C6001F910F91FF90EF9008950E94D3
:10794000763C982F8091C00085FFFCCF9093C600B5
:1079500091362CF490330CF09053892F089597555D
:10796000892F08951F930E949F3C182F0E949F3CCF
:107970001295107F810F1F9108951F93182F882350
:1079800021F00E94763C1150E1F71F9108951F935A
:10799000182F0E94763C803249F0809103018F5F5E
:1079A000809303018530C1F01F9108958091C0003C
:1079B00085FFFCCF84E18093C6008091C00085FFE5
:1079C000FCCF1093C6008091C00085FFFCCF80E102
:1079D0008093C6001F910895E0910401F091050184
:1079E00009951F9108950E94763C803241F0809164
:1079F00003018F5F80930301853081F008958091AA
:107A0000C00085FFFCCF84E18093C6008091C00058
:107A100085FFFCCF80E18093C6000895E0910401CA
:107A2000F09105010995089540E951E08823A1F0FE
:107A30002D9A28EE33E0FA013197F1F721503040CA
:107A4000D1F72D9828EE33E0FA013197F1F7215064
:107A50003040D1F7815061F708953F924F925F9285
:107A60006F927F928F929F92AF92BF92CF92DF924E
:107A7000EF92FF920F931F93CF93DF93000080E16B
:107A80008093C4001092C50088E18093C10086E015
:107A90008093C2005098589A259A81E00E94143D24
:107AA00024E1F22E9EE1E92E85E9D82E0FE0C02ECA
:107AB00010E1B12EAA24A394B1E49B2EA6E58A2E50
:107AC000F2E57F2EE0E26E2E79E4572E63E5462E36
:107AD00050E5352E0E94763C8033B1F18133B9F107
:107AE000803409F46FC0813409F476C0823409F41B
:107AF00085C0853409F488C0803531F1823521F1A3
:107B0000813511F1853509F485C0863509F48DC0BC
:107B1000843609F496C0843709F403C1853709F423
:107B200072C1863709F466C0809103018F5F80932C
:107B30000301853079F6E0910401F0910501099582
:107B40000E94763C803351F60E94F33CC3CF0E94E2
:107B5000763C803249F78091C00085FFFCCFF092DF
:107B6000C6008091C00085FFFCCF9092C600809136
:107B7000C00085FFFCCF8092C6008091C00085FFC9
:107B8000FCCF7092C6008091C00085FFFCCF609250
:107B9000C6008091C00085FFFCCF5092C600809146
:107BA000C00085FFFCCF4092C6008091C00085FFD9
:107BB000FCCF3092C6008091C00085FFFCCFB09210
:107BC000C60088CF0E94763C863808F4BDCF0E945C
:107BD000763C0E94F33C7ECF0E94763C803809F4CC
:107BE0009CC0813809F40BC1823809F43CC1883942
:107BF00009F48FC080E00E94C73C6CCF84E10E94F2
:107C0000BD3C0E94F33C66CF85E00E94BD3C0E94D3
:107C1000F33C60CF0E94763C809306010E94763C44
:107C2000809307010E94F33C55CF0E94763C80333D
:107C300009F41DC183E00E94BD3C80E00E94C73C66
:107C400049CF0E94763C809309020E94763C809343
:107C5000080280910C028E7F80930C020E94763C79
:107C6000853409F415C18091080290910902892B8D
:107C700089F000E010E00E94763CF801E85FFE4FDA
:107C800080830F5F1F4F80910802909109020817AF
:107C9000190788F30E94763C803209F045CF809125
:107CA0000C0280FF01C16091060170910701660F0F
:107CB000771F7093070160930601A0910802B091AD
:107CC00009021097C9F0E8E0F1E09B01AD014E0F09
:107CD0005F1FF999FECF32BD21BD819180BDFA9A17
:107CE000F99A2F5F3F4FE417F50799F76A0F7B1F4B
:107CF00070930701609306018091C00085FFFCCF5F
:107D0000F092C6008091C00085FFFCCFB092C60003
:107D1000E1CE83E00E94C73CDDCE82E00E94C73CFA
:107D2000D9CE0E94763C809309020E94763C8093D3
:107D300008028091060190910701880F991F909386
:107D40000701809306010E94763C853409F4A6C0A1
:107D500080910C028E7F80930C020E94763C8032D0
:107D600009F0B8CE8091C00085FFFCCFF092C6002C
:107D7000609108027091090261157105B9F140E046
:107D800050E080910C02A82FA170B82FB27011C0E2
:107D9000BB2309F45CC0E0910601F0910701319624
:107DA000F0930701E09306014F5F5F4F46175707B7
:107DB000E8F4AA2369F3F999FECF209106013091E6
:107DC000070132BD21BDF89A90B58091C00085FFB2
:107DD000FCCF9093C6002F5F3F4F30930701209355
:107DE00006014F5F5F4F4617570718F38091C00099
:107DF00085FDE5CE8091C00085FFF8CFE0CE81E023
:107E00000E94C73C67CE0E94763C803209F08CCE3F
:107E10008091C00085FFFCCFF092C6008091C00029
:107E200085FFFCCFE092C6008091C00085FFFCCFAB
:107E3000D092C6008091C00085FFFCCFC092C600E2
:107E40008091C00085FFFCCFB092C60043CEE09188
:107E50000601F091070194918091C00085FFFCCF4D
:107E60009093C6009CCF80E10E94C73C33CE0E9415
:107E7000763C0E94763C182F0E94763C112309F430
:107E800083C0113009F484C08FE00E94C73C22CE29
:107E900080910C02816080930C02E5CE80910C02EF
:107EA000816080930C0259CF809107018823880F4D
:107EB000880B8A2180930B02809106019091070123
:107EC000880F991F90930701809306018091080203
:107ED00080FF09C080910802909109020196909359
:107EE000090280930802F894F999FECF1127E091D6
:107EF0000601F0910701C8E0D1E08091080290915D
:107F00000902103091F40091570001700130D9F34B
:107F100003E000935700E89500915700017001308D
:107F2000D9F301E100935700E89509901990009169
:107F3000570001700130D9F301E000935700E89534
:107F40001395103498F011270091570001700130FB
:107F5000D9F305E000935700E895009157000170B0
:107F60000130D9F301E100935700E895329602976A
:107F700009F0C7CF103011F00296E5CF112480919F
:107F8000C00085FFB9CEBCCE8EE10E94C73CA2CD19
:0E7F900085E90E94C73C9ECDF894FFCF80008B
:00000001FF
