:100000000C9462040C948A040C948A040C948A0460
:100010000C948A040C948A040C948A040C948A0428
:100020000C948A040C948A040C948A040C948A0418
:100030000C948A040C945E080C948A040C948A0430
:100040000C94BC070C948A040C942C080C9406089D
:100050000C948A040C94AD080C948A040C948A04C1
:100060000C948A040C948A040000000025002800E7
:100070002B0000000000240027002A0000000000E0
:1000800023002600290004040404040404040202DA
:100090000202020203030303030301020408102007
:1000A0004080010204081020010204081020000012
:1000B0000008000201000003040700000000000027
:1000C0000000808080808080808080808080808030
:1000D0008080808080808080808080808080808020
:1000E000808080808080808080808081818181810B
:1000F00081818181818181818181818182828282EC
:1001000082828282828282828283838383838383C8
:1001100083838383848484848484848484848585A1
:100120008585858585858586868686868686868775
:100130008787878787878888888888888888898943
:10014000898989898A8A8A8A8A8A8A8B8B8B8B8B0E
:100150008B8C8C8C8C8C8C8D8D8D8D8D8E8E8E8ED3
:100160008E8E8F8F8F8F8F90909090909191919194
:100170009192929292929393939393949494949451
:100180009595959596969696969797979798989809
:100190009898999999999A9A9A9A9B9B9B9B9C9CBF
:1001A0009C9C9D9D9D9D9E9E9E9E9F9F9F9FA0A06F
:1001B000A0A0A1A1A1A1A2A2A2A3A3A3A3A4A4A41D
:1001C000A4A5A5A5A6A6A6A6A7A7A7A8A8A8A8A9C6
:1001D000A9A9AAAAAAAAABABABACACACACADADAD6D
:1001E000AEAEAEAFAFAFB0B0B0B0B1B1B1B2B2B20F
:1001F000B3B3B3B4B4B4B5B5B5B5B6B6B6B7B7B7AF
:10020000B8B8B8B9B9B9BABABABBBBBBBCBCBCBD4B
:10021000BDBDBEBEBEBFBFBFC0C0C0C1C1C1C2C2E6
:10022000C2C3C3C4C4C4C5C5C5C6C6C6C7C7C7C87C
:10023000C8C8C9C9C9CACACBCBCBCCCCCCCDCDCD13
:10024000CECECFCFCFD0D0D0D1D1D1D2D2D3D3D3A5
:10025000D4D4D4D5D5D5D6D6D7D7D7D8D8D8D9D938
:10026000DADADADBDBDBDCDCDDDDDDDEDEDEDFDFC8
:10027000E0E0E0E1E1E2E2E2E3E3E3E4E4E5E5E556
:10028000E6E6E7E7E7E8E8E8E9E9EAEAEAEBEBECE3
:10029000ECECEDEDEDEEEEEFEFEFF0F0F1F1F1F271
:1002A000F2F3F3F3F4F4F5F5F5F6F6F6F7F7F8F8FC
:1002B000F8F9F9FAFAFAFBFBFCFCFCFDFDFEFEFE88
:1002C000FFFF000000010101020203030304040513
:1002D0000505060607070708080909090A0A0A0B9F
:1002E0000B0C0C0C0D0D0E0E0E0F0F10101011112B
:1002F00012121213131314141515151616171717B7
:1003000018181819191A1A1A1B1B1C1C1C1D1D1D44
:100310001E1E1F1F1F2020202121222222232324D2
:100320002424252525262627272728282829292A61
:100330002A2A2B2B2B2C2C2C2D2D2E2E2E2F2F2FF3
:100340003030303131323232333333343434353586
:100350003636363737373838383939393A3A3A3B1A
:100360003B3B3C3C3D3D3D3E3E3E3F3F3F404040B1
:10037000414141424242434343444444454545464A
:1003800046464747474848484949494A4A4A4A4BE6
:100390004B4B4C4C4C4D4D4D4E4E4E4F4F4F4F5086
:1003A0005050515151525252535353535454545527
:1003B00055555556565657575757585858595959CD
:1003C000595A5A5A5B5B5B5B5C5C5C5C5D5D5D5E75
:1003D0005E5E5E5F5F5F5F60606060616161616221
:1003E00062626263636363646464646565656566D1
:1003F0006666666767676767686868686969696984
:100400006A6A6A6A6A6B6B6B6B6B6C6C6C6C6C6D3A
:100410006D6D6D6E6E6E6E6E6E6F6F6F6F6F7070F6
:1004200070707071717171717172727272727373B6
:10043000737373737474747474747575757575757A
:100440007576767676767676777777777777777844
:1004500078787878787879797979797979797A7A10
:100460007A7A7A7A7A7A7A7B7B7B7B7B7B7B7B7BE3
:100470007B7C7C7C7C7C7C7C7C7C7C7C7D7D7D7DB9
:100480007D7D7D7D7D7D7D7D7D7E7E7E7E7E7E7E95
:100490007E7E7E7E7E7E7E7E7E7E7F7F7F7F7F7F76
:1004A0007F7F7F7F7F7F7F7F7F7F7F7F7F7F7F7F5C
:1004B0007F7F7F7F7F7F7F7F7F7F7F7F7F7F7F7F4C
:1004C0007F7F7F7F7F7F7F7F7F7F7F7F7F7F7F7F3C
:1004D0007F7F7F7F7F7F7F7F7F7F7F7F7F7F7F7F2C
:1004E0007F7F7F7F7F7F7F7F7F7F7F7F7E7E7E7E20
:1004F0007E7E7E7E7E7E7E7E7E7E7E7E7D7D7D7D20
:100500007D7D7D7D7D7D7D7D7D7C7C7C7C7C7C7C22
:100510007C7C7C7C7B7B7B7B7B7B7B7B7B7B7A7A29
:100520007A7A7A7A7A7A7A79797979797979797835
:100530007878787878787777777777777777767647
:10054000767676767575757575757574747474745C
:100550007473737373737372727272727171717177
:10056000717170707070706F6F6F6F6F6E6E6E6E96
:100570006E6D6D6D6D6D6C6C6C6C6C6B6B6B6B6BB9
:100580006A6A6A6A6A6969696968686868676767E0
:10059000676766666666656565656464646463630B
:1005A00063636262626261616161606060605F5F3B
:1005B0005F5F5E5E5E5E5D5D5D5C5C5C5C5B5B5B6D
:1005C0005B5A5A5A595959595858585757575756A4
:1005D00056565555555554545453535353525252DD
:1005E0005151515050504F4F4F4F4E4E4E4D4D4D1B
:1005F0004C4C4C4B4B4B4A4A4A4A4949494848485B
:10060000474747464646454545444444434343429D
:1006100042424141414040403F3F3F3E3E3E3D3DE2
:100620003D3C3C3C3B3B3A3A3A393939383838372B
:100630003737363636353534343433333332323275
:1006400031313030302F2F2F2E2E2E2D2D2C2C2CC3
:100650002B2B2B2A2A2A2929282828272727262610
:10066000252525242424232322222222212120205F
:100670001F1F1F1E1E1D1D1D1C1C1C1B1B1A1A1AB2
:100680001919181818171717161615151514141305
:10069000131312121211111010100F0F0E0E0E0D57
:1006A0000D0C0C0C0B0B0A0A0A09090908080707AC
:1006B0000706060505050404030303020201010100
:1006C000000000FFFFFEFEFEFDFDFCFCFCFBFBFA54
:1006D000FAFAF9F9F8F8F8F7F7F6F6F6F5F5F5F4A9
:1006E000F4F3F3F3F2F2F1F1F1F0F0EFEFEFEEEEFD
:1006F000EEEDEDECECECEBEBEAEAEAE9E9E8E8E850
:10070000E7E7E7E6E6E5E5E5E4E4E3E3E3E2E2E2A2
:10071000E1E1E0E0E0DFDFDEDEDEDDDDDDDCDCDBF5
:10072000DBDBDADADAD9D9D8D8D8D7D7D7D6D6D545
:10073000D5D5D4D4D4D3D3D3D2D2D1D1D1D0D0D093
:10074000CFCFCFCECECDCDCDCCCCCCCBCBCBCACAE0
:10075000C9C9C9C8C8C8C7C7C7C6C6C6C5C5C5C42C
:10076000C4C4C3C3C2C2C2C1C1C1C0C0C0BFBFBF75
:10077000BEBEBEBDBDBDBCBCBCBBBBBBBABABAB9BC
:10078000B9B9B8B8B8B7B7B7B6B6B6B5B5B5B5B400
:10079000B4B4B3B3B3B2B2B2B1B1B1B0B0B0B0AF40
:1007A000AFAFAEAEAEADADADACACACACABABABAA7F
:1007B000AAAAAAA9A9A9A8A8A8A8A7A7A7A6A6A6B9
:1007C000A6A5A5A5A4A4A4A4A3A3A3A3A2A2A2A1F1
:1007D000A1A1A1A0A0A0A09F9F9F9F9E9E9E9E9D25
:1007E0009D9D9D9C9C9C9C9B9B9B9B9A9A9A9A9955
:1007F0009999999898989898979797979696969682
:1008000096959595959494949494939393939392A9
:1008100092929292919191919190909090908F8FCD
:100820008F8F8F8E8E8E8E8E8E8D8D8D8D8D8C8CEE
:100830008C8C8C8C8B8B8B8B8B8B8A8A8A8A8A8A0A
:100840008A89898989898989888888888888888720
:100850008787878787878686868686868686858534
:100860008585858585858584848484848484848441
:10087000848383838383838383838383828282824B
:10088000828282828282828282818181818181814F
:10089000818181818181818181818080808080804E
:1008A0008080808080808080808080808080808048
:1008B0008080808080808080808080808080808038
:1008C0008080EC0811241FBECFEFD8E0DEBFCDBF83
:1008D00012E0A0E0B1E0E0E7F3E202C005900D9283
:1008E000A238B107D9F725E0A2E8B2E001C01D9215
:1008F000AB39B207E1F714E0C2E6D4E004C02197B7
:10090000FE010E94B011C136D107C9F70E945B09F0
:100910000C94B6110C94000090E0FC01E255FF4FDE
:100920002491FC01E656FF4F3491FC01EA57FF4F3A
:10093000E491EE23C1F1222339F02330E9F090F461
:10094000213001F1223011F1F0E0EE0FFF1FE458E9
:10095000FF4FA591B491EC91E32381E090E029F55C
:1009600080E008952730A9F02830C9F0243061F7DD
:10097000809180008F7D03C0809180008F7780936D
:100980008000E2CF84B58F7784BDDECF84B58F7DC4
:10099000FBCF8091B0008F778093B000D5CF80914E
:1009A000B0008F7DF9CF80E090E00895CF93DF9382
:1009B00090E0FC01E656FF4F24918A579F4FFC01BF
:1009C00084918823D1F090E0880F991FFC01EE58A4
:1009D000FF4FA591B491FC01E859FF4FC591D49107
:1009E000623071F49FB7F8943C91822F80958323F5
:1009F0008C93E8812E2B28839FBFDF91CF910895A0
:100A00008FB7F894EC912E2B2C938FBFF6CFAF922B
:100A1000BF92CF92DF92EF92FF920F931F93CF93EB
:100A2000DF936C017B018B01040F151FEB015E014D
:100A3000AE18BF08C017D10759F06991D601ED91E2
:100A4000FC910190F081E02DC6010995892B79F781
:100A5000C501DF91CF911F910F91FF90EF90DF9033
:100A6000CF90BF90AF900895FC01538D448D252FFA
:100A700030E0842F90E0821B930B541710F0CF9638
:100A8000089501970895FC01918D828D981761F06A
:100A9000A28DAE0FBF2FB11D5D968C91928D9F5F81
:100AA0009F73928F90E008958FEF9FEF0895FC0160
:100AB000918D828D981731F0828DE80FF11D858D13
:100AC00090E008958FEF9FEF0895FC01918D228DA6
:100AD000892F90E0805C9F4F821B91098F7399272B
:100AE000089582EB92E00E94650521E0892B09F4CC
:100AF00020E0822F089580E090E0892B29F00E9469
:100B0000710581110C9400000895FC01A48DA80FBB
:100B1000B92FB11DA35ABF4F2C91848D90E001963F
:100B20008F739927848FA689B7892C93A089B1895F
:100B30008C91837080648C93938D848D981306C000
:100B40000288F389E02D80818F7D80830895EF9264
:100B5000FF920F931F93CF93DF93EC0181E0888F77
:100B60009B8D8C8D98131AC0E889F989808185FF47
:100B700015C09FB7F894EE89FF896083E889F989E9
:100B800080818370806480839FBF81E090E0DF91EB
:100B9000CF911F910F91FF90EF900895F62E0B8D3E
:100BA00010E00F5F1F4F0F731127E02E8C8D8E11F9
:100BB0000CC00FB607FCFACFE889F989808185FF60
:100BC000F5CFCE010E948505F1CFEB8DEC0FFD2F07
:100BD000F11DE35AFF4FF0829FB7F8940B8FEA891B
:100BE000FB8980818062CFCFCF93DF93EC01888D2A
:100BF0008823B9F0AA89BB89E889F9898C9185FD98
:100C000003C0808186FD0DC00FB607FCF7CF8C9125
:100C100085FFF2CF808185FFEDCFCE010E94850553
:100C2000E9CFDF91CF9108950F931F93DC014D9190
:100C30005D916D917C91139714960D911D912D915D
:100C40003C911797400F511F621F731F4D935D9387
:100C50006D937C931397CB0197701896ED91FC914F
:100C6000E80FF91F84911F910F910895CF93DF939F
:100C70001F92CDB7DEB780919103909192038F3F81
:100C80009807F1F0FC01E757FC4F20812983019779
:100C9000909392038093910389818093000187FD53
:100CA0000BC0809100018770806480937C008091EC
:100CB0007A00806480937A000F90DF91CF9108953D
:100CC0008FEFEBCF8091000187FF04C00E943606B2
:100CD000109283020895FC0101900020E9F73197FA
:100CE000AF01481B590BBC0182EB92E00C94070545
:100CF0008F929F92AF92BF920F931F93CF93DF93E8
:100D0000CDB7DEB7A1970FB6F894DEBF0FBECDBF4B
:100D100019A2423008F44AE08E010F5D1F4F842E65
:100D2000912CB12CA12CA50194010E94FC0EE62F60
:100D3000B901CA01EA30F4F4E05DD801EE938D0107
:100D4000232B242B252B79F790E080E0109719F0C6
:100D5000CD010E946B06A1960FB6F894DEBF0FBEC0
:100D6000CDBFDF91CF911F910F91BF90AF909F901A
:100D70008F900895E95CE1CF0C946B06CF92DF92DF
:100D8000EF92FF92CF93DF936C01990FEE08FF086B
:100D9000F7FE19C06DE282EB92E00E94A705EC011C
:100DA00066277727CB016C197D098E099F094AE0D8
:100DB0000E9478068C0F9D1FDF91CF91FF90EF90DE
:100DC000DF90CF9008954AE0C701B601DF91CF913F
:100DD000FF90EF90DF90CF900C9478064F925F9247
:100DE0006F927F928F929F92AF92BF92CF92DF923B
:100DF000EF92FF926B017C01AC019B010E94641198
:100E0000882381F08FEE91E0FF90EF90DF90CF90FC
:100E1000BF90AF909F908F907F906F905F904F901A
:100E20000C946B0646015701E894B7F82FEF3FEF9B
:100E30004FE75FE7C501B4010E94641181110DC045
:100E40002FEF3FEF4FE75FE7C501B4010E949A0F14
:100E500018161CF483EF91E0D7CF2FEF3FEF4FE749
:100E60005FE4C701B6010E94F21018161CF487EF68
:100E700091E0CACF2FEF3FEF4FE75FECC701B6011C
:100E80000E949A0F87FDF3CF20E030E0A901C7014F
:100E9000B6010E949A0FB12CA12C87FF0AC06DE207
:100EA00082EB92E00E94A7055C01F7FAF094F7F854
:100EB000F0942AE037ED43EA5BE3C701B6010E94F4
:100EC0002E0F2B013C010E9411106B017C010E942E
:100ED00040109B01AC01C301B2010E942D0F2B01F8
:100EE0003C014AE0C701B6010E9478067C01EA0C89
:100EF000FB1C6EE282EB92E00E94A705E80EF91E51
:100F000020E030E040E251E4C301B2010E94F7105A
:100F10002B013C010E9411104B01B12CA12C4AE085
:100F2000C501B4010E947806E80EF91EC501B4019E
:100F30000E9440109B01AC01C301B2010E942D0F21
:100F400020E030E040E251E40E94F7100E941110CE
:100F500090E080E04AE00E9478068E0D9F1DFF9091
:100F6000EF90DF90CF90BF90AF909F908F907F9049
:100F70006F905F904F9008951F920F920FB60F924F
:100F800011242F933F938F939F93AF93BF9380919F
:100F9000AE029091AF02A091B002B091B102309137
:100FA000AD0223E0230F2D3758F50196A11DB11D89
:100FB0002093AD028093AE029093AF02A093B00253
:100FC000B093B1028091A9029091AA02A091AB02C4
:100FD000B091AC020196A11DB11D8093A90290931E
:100FE000AA02A093AB02B093AC02BF91AF919F91C4
:100FF0008F913F912F910F900FBE0F901F901895DA
:1010000026E8230F0296A11DB11DD2CF1F920F9289
:101010000FB60F9211242F933F934F935F936F93CB
:101020007F938F939F93AF93BF93EF93FF9382EB45
:1010300092E00E948505FF91EF91BF91AF919F9142
:101040008F917F916F915F914F913F912F910F9071
:101050000FBE0F901F9018951F920F920FB60F9210
:1010600011242F938F939F93EF93FF93E091C202EC
:10107000F091C3028081E091C802F091C90282FD23
:101080001BC090818091CB028F5F8F732091CC0227
:10109000821741F0E091CB02F0E0EE54FD4F958FC6
:1010A0008093CB02FF91EF919F918F912F910F90A1
:1010B0000FBE0F901F9018958081F4CF1F920F9252
:1010C0000FB60F9211242F933F938F939F93AF935B
:1010D000BF93EF93FF938091820291E089278093E1
:1010E000820281112DC080919305E82FF0E0EE0F70
:1010F000FF1FED56FC4F208131818F5F8093930558
:10110000811118C08091950589278093950580915C
:10111000970590919805A0919905B0919A0501962F
:10112000A11DB11D8093970590939805A0939905F3
:10113000B0939A052C503F4F30938900209388003C
:10114000FF91EF91BF91AF919F918F913F912F911F
:101150000F900FBE0F901F9018951F920F920FB611
:101160000F9211242F933F934F935F936F937F932D
:101170008F939F93AF93BF93EF93FF9380918302DD
:10118000811119C080917A00806480937A0081E097
:1011900080938302FF91EF91BF91AF919F918F91C7
:1011A0007F916F915F914F913F912F910F900FBE63
:1011B0000F901F901895E091000180917800909118
:1011C0007900EE0FFF0BE457FD4F918380830E945F
:1011D000360610928302DECFE2EBF2E01382128237
:1011E00088EE93E0A0E0B0E084839583A683B78384
:1011F00081EE91E09183808385EC90E095878487F0
:1012000084EC90E09787868780EC90E0918B808BD0
:1012100081EC90E0938B828B82EC90E0958B848BB9
:1012200086EC90E0978B868B118E128E138E148E27
:1012300010929305109294051092950510929605C0
:101240008FEF9FEF9093920380939103EDE7F3E08C
:101250008FE692E1A3E8B1E480879187A287B38704
:101260001482158216821782E3E7F3E0118210825E
:101270008FEF93E093838283158214828CEB92E04C
:10128000978386838AE090E09187808782EC90E064
:101290009093720380937103909368038093670324
:1012A00090935E0380935D038CEC9CE090935403D9
:1012B000809353030895CF93DF93CDB7DEB768973C
:1012C0000FB6F894DEBF0FBECDBF789484B58260B0
:1012D00084BD84B5816084BD85B5826085BD85B5DA
:1012E000816085BD80916E00816080936E00109258
:1012F00081008091810082608093810080918100D3
:101300008160809381008091800081608093800063
:101310008091B10084608093B1008091B0008160C1
:101320008093B00080917A00846080937A008091ED
:101330007A00826080937A0080917A008160809345
:101340007A0080917A00806880937A001092C100C0
:10135000E091C202F091C30282E08083E091BE027C
:10136000F091BF021082E091C002F091C10280E1D1
:1013700080831092CA02E091C602F091C70286E013
:101380008083E091C402F091C502808180618083F6
:10139000E091C402F091C502808188608083E09171
:1013A000C402F091C502808180688083E091C4020C
:1013B000F091C50280818F7D80838BEF91E00E9448
:1013C0006B068BE292E00E946B0680917A00886047
:1013D00080937A0090E080E061E070E020917E00F0
:1013E000AB01082E01C0440F0A94EAF7242B209386
:1013F0007E0001968830910589F780917A0084609B
:1014000080937A0080917A008D7F80937A0080911A
:101410007A008E7F80937A008FEF90E09093A602FF
:101420008093A50280918000809181008091880046
:101430009091890080916F0061E089E00E94D6045C
:101440001092890298E190938A0282E080938B0245
:10145000909381008093800087EE91E0A0E0B0E05F
:10146000EE24E394E09286029093850280938402B6
:10147000909387008093860089E18093810061E0EA
:1014800089E00E94D6048091800090918B02892B84
:101490008068809380002091840230918502A4EFBF
:1014A000B0E00E941E0FEAE09695879577956795C4
:1014B000EA95D1F7709389006093880080918A0241
:1014C00090918602892B80938100E0926F0062E008
:1014D00082E00E94D60462E083E00E94D60462E0CB
:1014E00084E00E94D60483E00E948C04892B11F4CE
:1014F000E0929C0220E030E040E752E460918503F6
:101500007091860380918703909188030E94F71061
:101510000E94111060938103709382038093830370
:10152000909384039091940580919305981306C03D
:1015300090919605809195059813FDC38091A7021F
:101540009091A802009709F01FC48091A502909184
:10155000A6029093A8028093A70282E00E948C04C6
:101560009E8B8D8B80919103909192038730910592
:1015700054F40196909392038093910387579C4F64
:10158000E3E0DC01EC938091920290919302209130
:10159000910330919203273031055CF42F5F3F4F68
:1015A000309392032093910327573C4FE4E0D901F5
:1015B000EC932091940230919502821B930B9C0135
:1015C0002A5F3F4F2D303105C0F097FD039695956A
:1015D0008795959587952091A3023091A402820F5B
:1015E000931F873FF7E29F070CF4B2C3EE24E39406
:1015F000F12CF092A402E092A3022091A302309178
:10160000A402C90164EF71E00E9479111B01C901B4
:101610006AE070E00E9479117A8B698BCB0162E3FA
:1016200070E00E9479119C8B8B8B91012F5F3F4F53
:101630008101000F111FF801EF54FE4FC080D180CF
:101640000D2C000CEE08FF084C01990FAA08BB08EE
:10165000220F331F388F2F8BF901EF54FE4F20815B
:101660003181032E000C440B550B2C193D094E09FA
:101670005F09C501B4010E94691122E330E040E036
:1016800050E00E94CA0EDA01C9018C0D9D1DAE1DED
:10169000BF1D8D879E87AF87B88BF801E957FE4F36
:1016A000C080D1800D2C000CEE08FF08EF89F88D6A
:1016B000E957FE4F20813181032E000C440B550B5E
:1016C0002C193D094E095F09C501B4010E94691139
:1016D00022E330E040E050E00E94CA0EC20ED31E6A
:1016E000E41EF51EDA86C986F801E35AFE4F4080F3
:1016F0005180052C000C66087708EF89F88DE35AB5
:10170000FE4F20813181032E000C440B550B241910
:10171000350946095709C501B4010E94691122E340
:1017200030E040E050E00E94CA0ECA01B901640DE9
:10173000751D861D971D0E94421020E030E04AE78B
:1017400054E40E949F0F2B013C01F801E35DFE4F22
:1017500020813181C901330FAA0BBB0B89839A8386
:10176000AB83BC83EF89F88DE35DFE4F208131812F
:10177000032E000C440B550B281B390B4A0B5B0B3B
:10178000C501B4010E94691122E330E040E050E05D
:101790000E94CA0E89819A81AB81BC81820F931FFE
:1017A000A41FB51F89839A83AB83BC83F801EF5FC5
:1017B000FE4F20813181C901330FAA0BBB0B8D83F2
:1017C0009E83AF83B8870F89188D0F5F1E4FD80196
:1017D0002D913C91032E000C440B550B8D819E8165
:1017E000AF81B885281B390B4A0B5B0BC501B401CF
:1017F0000E94691122E330E040E050E00E94CA0EEE
:101800008D819E81AF81B885820F931FA41FB51F64
:101810008D839E83AF83B887809173039091740307
:1018200020917503309176038C159D050CF09FC2B5
:10183000D0927403C0927303C601821B930B9093E2
:101840007803809377038090790390907A03092C32
:10185000000CAA08BB0880917503909176038C0157
:10186000990F220B330B09871A872B873C8720910E
:101870007B0330917C03032E000C440B550B28197D
:1018800039094A095B09B601DD0C880B990BE9841B
:10189000FA840B851C856E197F09800B910B0E94C1
:1018A00069112091730330917403032E000C440BD3
:1018B000550B2E193F09400B510B0E94CA0E6901AE
:1018C0007A01C80CD91CEA1CFB1C20E030E040E087
:1018D00055E4C301B2010E94F71020E030E040E877
:1018E0005CE30E94F71020E030E040E857E40E94FB
:1018F000F7100E9411106093590370935A0380935C
:101900005B0390935C030D851E85C801012E000CBE
:10191000AA0BBB0BEDE0880F991FAA1FBB1FEA950E
:10192000D1F780936D0390936E03A0936F03B093F0
:10193000700385E0809F9001819F300D1124A98163
:10194000BA812A9FC0012B9F900D3A9F900D1124C0
:10195000092E000CAA0BBB0BFDE0880F991FAA1FD4
:10196000BB1FFA95D1F78093630390936403A09310
:101970006503B09366039601AD81BE810E948D110F
:101980004B015C0185E593E00E941406A82F880FA7
:10199000BB0BA058BF4FA50194010E94F40E672F06
:1019A000782F892F992787FD9A9560939F027093CE
:1019B000A0028093A1029093A2028091970590913A
:1019C0009805A0919905B0919A05BA2FA92F982F43
:1019D000882720919305820F911DA11DB11D409173
:1019E0007D0350917E0360917F0370918003841783
:1019F0009507A607B70708F4BCC080919D02909197
:101A00009E0209891A8908171907B9F010939E02D6
:101A100000939D028BE392E00E946B068BE292E0C2
:101A20000E946B068091A3029091A4026AE070E08C
:101A30000E947911CB010E94BE068091970590917A
:101A40009805A0919905B0919A05BA2FA92F982FC2
:101A5000882720919305820F911DA11DB11D4091F2
:101A60008103509182036091830370918403840FFA
:101A7000951FA61FB71F80937D0390937E03A093AD
:101A80007F03B093800380919C02882309F44BC0AC
:101A90008091A3029091A402893D974214F0109284
:101AA0009C028EE292E00E94BC068D859E850E947B
:101AB000BE068EE292E00E94BC06C6010E94BE06EF
:101AC0008EE292E00E94BC0620E030E040E251E469
:101AD000C301B2010E94F7100E94EE068EE292E06E
:101AE0000E94BC064AE029813A81429FC001439F7F
:101AF000900D11240E94BE068EE292E00E94BC0668
:101B0000EAE0AD81BE81EA9FC001EB9F900D1124F8
:101B10000E94BE068091A3029091A4020A9690931F
:101B2000A4028093A3028091970590919805A091BB
:101B30009905B0919A05BA2FA92F982F882720913F
:101B40009305820F911DA11DB11D409181035091FC
:101B500082036091830370918403840F951FA61FF5
:101B6000B71F80937D0390937E03A0937F03B09370
:101B700080030D891E89012B09F052C080E392E099
:101B80000E94BC06C1010E94BE0683E792E00E944B
:101B9000BC0685E392E00E94BC068B899C890E946A
:101BA000BE068AE392E00E94BC068CE392E00E94AB
:101BB000BC068D859E850E94BE068AE392E00E9447
:101BC000BC068CE492E00E94BC06C6010E94BE06E0
:101BD0008AE392E00E94BC068FE592E00E94BC0678
:101BE000C301B2010E94EE068AE392E00E94BC06A5
:101BF0008CE692E00E94BC0689819A810E94BE0612
:101C00008AE392E00E94BC0685E792E00E94BC064F
:101C10008D819E810E94BE068BE292E00E946B063F
:101C20000E94620680904F0390905003A090510351
:101C3000B0905203BB27B7FCBA95AB2D9A2D892DD6
:101C400020919F023091A0024091A1025091A202E6
:101C5000281B390B4A0B5B0BA0915303B091540323
:101C60000E94E90EC72ED82EE92EFF24E7FCFA9435
:101C7000C80CD91CEA1CFB1CC0924F03D092500325
:101C8000E0925103F09252038FE593E00E94140614
:101C90008090690390906A03A0906B03B0906C03EE
:101CA00040916D0350916E0360916F0370917003CA
:101CB000840E951EA61EB71E8092690390926A0339
:101CC000A0926B03B0926C035527F7FC5A954F2DE9
:101CD0003E2D2D2DA82F880FBB0B0E94F40E4BE03C
:101CE000660F771F881F991F4A95D1F7860E971E9A
:101CF000A81EB91EC5019770E0917103F09172039F
:101D0000E80FF91FE49180919405A82FB0E0AA0F85
:101D1000BB1FAD56BC4F0E2E000CFF0BED93FC937A
:101D20008F5F80939405811106C08091960511E024
:101D300081278093960520E030E0232B09F4F2CB35
:101D40000E947105882309F4EDCB0E940000EACBC4
:101D5000181619062CF49093A4028093A3024DCC7C
:101D600006EF17E21093A4020093A30246CC098564
:101D70001A85021713070CF066CDD0927603C09235
:101D800075038C199D095BCD01979093A8028093F0
:101D9000A70248CF052E97FB1EF400940E94E10E87
:101DA00057FD07D00E94FC0E07FC03D04EF40C94A4
:101DB000E10E50954095309521953F4F4F4F5F4F25
:101DC000089590958095709561957F4F8F4F9F4FA7
:101DD00008950E941E0FA59F900DB49F900DA49F83
:101DE000800D911D11240895B7FF0C94E90E0E94F7
:101DF000E90E821B930B0895A1E21A2EAA1BBB1BAE
:101E0000FD010DC0AA1FBB1FEE1FFF1FA217B307C6
:101E1000E407F50720F0A21BB30BE40BF50B661FDC
:101E2000771F881F991F1A9469F7609570958095A0
:101E300090959B01AC01BD01CF010895A29FB00117
:101E4000B39FC001A39F700D811D1124911DB29FEE
:101E5000700D811D1124911D08955058BB27AA278C
:101E60000E94450F0C94B8100E94AA1038F00E94EE
:101E7000B11020F039F49F3F19F426F40C94A71008
:101E80000EF4E095E7FB0C94A110E92F0E94C91015
:101E900058F3BA17620773078407950720F079F49F
:101EA000A6F50C94EB100EF4E0950B2EBA2FA02D96
:101EB0000B01B90190010C01CA01A0011124FF27F7
:101EC000591B99F0593F50F4503E68F11A16F040F2
:101ED000A22F232F342F4427585FF3CF46953795F1
:101EE0002795A795F0405395C9F77EF41F16BA0BB6
:101EF000620B730B840BBAF09150A1F0FF0FBB1F64
:101F0000661F771F881FC2F70EC0BA0F621F731FAC
:101F1000841F48F4879577956795B795F7959E3F09
:101F200008F0B0CF9395880F08F09927EE0F97959A
:101F3000879508950E947D1008F481E008950E941D
:101F4000B30F0C94B8100E94B11058F00E94AA1060
:101F500040F029F45F3F29F00C94A11051110C942A
:101F6000EC100C94A7100E94C91068F39923B1F3E8
:101F7000552391F3951B550BBB27AA2762177307AF
:101F8000840738F09F5F5F4F220F331F441FAA1F43
:101F9000A9F335D00E2E3AF0E0E832D091505040FF
:101FA000E695001CCAF72BD0FE2F29D0660F771FAD
:101FB000881FBB1F261737074807AB07B0E809F093
:101FC000BB0B802DBF01FF2793585F4F3AF09E3F18
:101FD000510578F00C94A1100C94EC105F3FE4F3E1
:101FE000983ED4F3869577956795B795F7959F5F5B
:101FF000C9F7880F911D9695879597F90895E1E0A7
:10200000660F771F881FBB1F621773078407BA0705
:1020100020F0621B730B840BBA0BEE1F88F7E09560
:1020200008950E94D11088F09F5798F0B92F9927F2
:10203000B751B0F0E1F0660F771F881F991F1AF0B3
:10204000BA95C9F714C0B13091F00E94EB10B1E01D
:1020500008950C94EB10672F782F8827B85F39F01C
:10206000B93FCCF3869577956795B395D9F73EF44C
:1020700090958095709561957F4F8F4F9F4F0895F4
:10208000E89409C097FB3EF4909580957095619512
:102090007F4F8F4F9F4F9923A9F0F92F96E9BB27C8
:1020A0009395F695879577956795B795F111F8CF44
:1020B000FAF4BB0F11F460FF1BC06F5F7F4F8F4FAF
:1020C0009F4F16C0882311F096E911C0772321F0A5
:1020D0009EE8872F762F05C0662371F096E8862F3D
:1020E00070E060E02AF09A95660F771F881FDAF794
:1020F000880F9695879597F90895990F0008550FC1
:10210000AA0BE0E8FEEF16161706E807F907C0F07D
:1021100012161306E407F50798F0621B730B840B85
:10212000950B39F40A2661F0232B242B252B21F45F
:1021300008950A2609F4A140A6958FEF811D811DFF
:10214000089597F99F6780E870E060E008959FEF39
:1021500080EC089500240A9416161706180609063E
:10216000089500240A94121613061406050608950D
:10217000092E0394000C11F4882352F0BB0F40F495
:10218000BF2B11F460FF04C06F5F7F4F8F4F9F4FD5
:10219000089557FD9058440F551F59F05F3F71F057
:1021A0004795880F97FB991F61F09F3F79F08795BE
:1021B0000895121613061406551FF2CF4695F1DF47
:1021C00008C0161617061806991FF1CF86957105D7
:1021D000610508940895E894BB2766277727CB010B
:1021E00097F908950E947D1008F48FEF08950E94DA
:1021F0000A110C94B8100E94AA1038F00E94B11075
:1022000020F0952311F00C94A1100C94A710112428
:102210000C94EC100E94C91070F3959FC1F3950FB8
:1022200050E0551F629FF001729FBB27F00DB11D5A
:10223000639FAA27F00DB11DAA1F649F6627B00DEA
:10224000A11D661F829F2227B00DA11D621F739FD3
:10225000B00DA11D621F839FA00D611D221F749FE1
:102260003327A00D611D231F849F600D211D822F28
:10227000762F6A2F11249F5750409AF0F1F088234F
:102280004AF0EE0FFF1FBB1F661F771F881F91507C
:102290005040A9F79E3F510580F00C94A1100C947A
:1022A000EC105F3FE4F3983ED4F3869577956795FD
:1022B000B795F795E7959F5FC1F7FE2B880F911DA6
:1022C0009695879597F908950E947D10880B990B34
:1022D0000895DB018F939F930E94E90EBF91AF9108
:1022E000A29F800D911DA39F900DB29F900D112470
:1022F000089597FB072E16F4009407D077FD09D0B8
:102300000E949C1107FC05D03EF4909581959F4F4B
:102310000895709561957F4F08950E941E0F332395
:1023200012F48A1B9B0B0C9497110E941E0FB7FF8F
:102330000895821B930B0895AA1BBB1B51E107C094
:10234000AA1FBB1FA617B70710F0A61BB70B881F45
:10235000991F5A95A9F780959095BC01CD010895D4
:10236000EE0FFF1F0590F491E02D0994F894FFCF34
:10237000FF0000010003000200070006000900033F
:102380000004000A00000003000200020001000235
:10239000000600070008000300000000000A000417
:1023A0000008000A00060004000100010006000603
:1023B000000700010003000200010002000A000201
:1023C0000007000500080009000A000A0001008853
:1023D000132823580264005A00F4011027D007F490
:1023E0000120031E005A006400C800581B1E005044
:1023F0000064002C010A0046002C016400320090A9
:102400000164005000BC021E003C000A005000C8DD
:10241000002C01640028000A003C005A00C8004655
:102420000016004A011E002003C8001400C8006402
:1024300000280014001E0050001400640090012CBD
:1024400001140050005A0090011E003200000000EC
:1024500000A70507053405F4056505430557056E16
:10246000616E00696E66006F766600536369466947
:10247000526164696F5F536F756E645F53796E74F8
:10248000682E696E6F20322F31352F323032352071
:10249000546F6D4D634775697265000D0A002C001D
:1024A00061203D200078203D2000090063617272A8
:1024B0006965725F66726571203D20004C4452313F
:1024C0005F63616C69627261746564203D20006DB8
:1024D0006F645F7370656564203D20002020465264
:1024E00051203D20006B6E6F623276616C203D2082
:0224F0000000EA
:00000001FF
