:100000000C9462040C948A040C948A040C948A0460
:100010000C948A040C948A040C948A040C948A0428
:100020000C948A040C948A040C948A040C948A0418
:100030000C948A040C9446070C948A040C948A0449
:100040000C94A4060C948A040C9414070C94EE06E9
:100050000C948A040C9495070C948A040C948A04DA
:100060000C948A040C948A040000000023002600EB
:10007000290000000008000201000003040700003E
:1000800000000000000000000000250028002B00F8
:1000900000000000240027002A00040404040404D3
:1000A0000404020202020202030303030303010227
:1000B00004081020408001020408102001020408F6
:1000C0001020808080808080808080808080808000
:1000D0008080808080808080808080808080808020
:1000E000808080808080808080808081818181810B
:1000F00081818181818181818181818182828282EC
:1001000082828282828282828283838383838383C8
:1001100083838383848484848484848484848585A1
:100120008585858585858586868686868686868775
:100130008787878787878888888888888888898943
:10014000898989898A8A8A8A8A8A8A8B8B8B8B8B0E
:100150008B8C8C8C8C8C8C8D8D8D8D8D8E8E8E8ED3
:100160008E8E8F8F8F8F8F90909090909191919194
:100170009192929292929393939393949494949451
:100180009595959596969696969797979798989809
:100190009898999999999A9A9A9A9B9B9B9B9C9CBF
:1001A0009C9C9D9D9D9D9E9E9E9E9F9F9F9FA0A06F
:1001B000A0A0A1A1A1A1A2A2A2A3A3A3A3A4A4A41D
:1001C000A4A5A5A5A6A6A6A6A7A7A7A8A8A8A8A9C6
:1001D000A9A9AAAAAAAAABABABACACACACADADAD6D
:1001E000AEAEAEAFAFAFB0B0B0B0B1B1B1B2B2B20F
:1001F000B3B3B3B4B4B4B5B5B5B5B6B6B6B7B7B7AF
:10020000B8B8B8B9B9B9BABABABBBBBBBCBCBCBD4B
:10021000BDBDBEBEBEBFBFBFC0C0C0C1C1C1C2C2E6
:10022000C2C3C3C4C4C4C5C5C5C6C6C6C7C7C7C87C
:10023000C8C8C9C9C9CACACBCBCBCCCCCCCDCDCD13
:10024000CECECFCFCFD0D0D0D1D1D1D2D2D3D3D3A5
:10025000D4D4D4D5D5D5D6D6D7D7D7D8D8D8D9D938
:10026000DADADADBDBDBDCDCDDDDDDDEDEDEDFDFC8
:10027000E0E0E0E1E1E2E2E2E3E3E3E4E4E5E5E556
:10028000E6E6E7E7E7E8E8E8E9E9EAEAEAEBEBECE3
:10029000ECECEDEDEDEEEEEFEFEFF0F0F1F1F1F271
:1002A000F2F3F3F3F4F4F5F5F5F6F6F6F7F7F8F8FC
:1002B000F8F9F9FAFAFAFBFBFCFCFCFDFDFEFEFE88
:1002C000FFFF000000010101020203030304040513
:1002D0000505060607070708080909090A0A0A0B9F
:1002E0000B0C0C0C0D0D0E0E0E0F0F10101011112B
:1002F00012121213131314141515151616171717B7
:1003000018181819191A1A1A1B1B1C1C1C1D1D1D44
:100310001E1E1F1F1F2020202121222222232324D2
:100320002424252525262627272728282829292A61
:100330002A2A2B2B2B2C2C2C2D2D2E2E2E2F2F2FF3
:100340003030303131323232333333343434353586
:100350003636363737373838383939393A3A3A3B1A
:100360003B3B3C3C3D3D3D3E3E3E3F3F3F404040B1
:10037000414141424242434343444444454545464A
:1003800046464747474848484949494A4A4A4A4BE6
:100390004B4B4C4C4C4D4D4D4E4E4E4F4F4F4F5086
:1003A0005050515151525252535353535454545527
:1003B00055555556565657575757585858595959CD
:1003C000595A5A5A5B5B5B5B5C5C5C5C5D5D5D5E75
:1003D0005E5E5E5F5F5F5F60606060616161616221
:1003E00062626263636363646464646565656566D1
:1003F0006666666767676767686868686969696984
:100400006A6A6A6A6A6B6B6B6B6B6C6C6C6C6C6D3A
:100410006D6D6D6E6E6E6E6E6E6F6F6F6F6F7070F6
:1004200070707071717171717172727272727373B6
:10043000737373737474747474747575757575757A
:100440007576767676767676777777777777777844
:1004500078787878787879797979797979797A7A10
:100460007A7A7A7A7A7A7A7B7B7B7B7B7B7B7B7BE3
:100470007B7C7C7C7C7C7C7C7C7C7C7C7D7D7D7DB9
:100480007D7D7D7D7D7D7D7D7D7E7E7E7E7E7E7E95
:100490007E7E7E7E7E7E7E7E7E7E7F7F7F7F7F7F76
:1004A0007F7F7F7F7F7F7F7F7F7F7F7F7F7F7F7F5C
:1004B0007F7F7F7F7F7F7F7F7F7F7F7F7F7F7F7F4C
:1004C0007F7F7F7F7F7F7F7F7F7F7F7F7F7F7F7F3C
:1004D0007F7F7F7F7F7F7F7F7F7F7F7F7F7F7F7F2C
:1004E0007F7F7F7F7F7F7F7F7F7F7F7F7E7E7E7E20
:1004F0007E7E7E7E7E7E7E7E7E7E7E7E7D7D7D7D20
:100500007D7D7D7D7D7D7D7D7D7C7C7C7C7C7C7C22
:100510007C7C7C7C7B7B7B7B7B7B7B7B7B7B7A7A29
:100520007A7A7A7A7A7A7A79797979797979797835
:100530007878787878787777777777777777767647
:10054000767676767575757575757574747474745C
:100550007473737373737372727272727171717177
:10056000717170707070706F6F6F6F6F6E6E6E6E96
:100570006E6D6D6D6D6D6C6C6C6C6C6B6B6B6B6BB9
:100580006A6A6A6A6A6969696968686868676767E0
:10059000676766666666656565656464646463630B
:1005A00063636262626261616161606060605F5F3B
:1005B0005F5F5E5E5E5E5D5D5D5C5C5C5C5B5B5B6D
:1005C0005B5A5A5A595959595858585757575756A4
:1005D00056565555555554545453535353525252DD
:1005E0005151515050504F4F4F4F4E4E4E4D4D4D1B
:1005F0004C4C4C4B4B4B4A4A4A4A4949494848485B
:10060000474747464646454545444444434343429D
:1006100042424141414040403F3F3F3E3E3E3D3DE2
:100620003D3C3C3C3B3B3A3A3A393939383838372B
:100630003737363636353534343433333332323275
:1006400031313030302F2F2F2E2E2E2D2D2C2C2CC3
:100650002B2B2B2A2A2A2929282828272727262610
:10066000252525242424232322222222212120205F
:100670001F1F1F1E1E1D1D1D1C1C1C1B1B1A1A1AB2
:100680001919181818171717161615151514141305
:10069000131312121211111010100F0F0E0E0E0D57
:1006A0000D0C0C0C0B0B0A0A0A09090908080707AC
:1006B0000706060505050404030303020201010100
:1006C000000000FFFFFEFEFEFDFDFCFCFCFBFBFA54
:1006D000FAFAF9F9F8F8F8F7F7F6F6F6F5F5F5F4A9
:1006E000F4F3F3F3F2F2F1F1F1F0F0EFEFEFEEEEFD
:1006F000EEEDEDECECECEBEBEAEAEAE9E9E8E8E850
:10070000E7E7E7E6E6E5E5E5E4E4E3E3E3E2E2E2A2
:10071000E1E1E0E0E0DFDFDEDEDEDDDDDDDCDCDBF5
:10072000DBDBDADADAD9D9D8D8D8D7D7D7D6D6D545
:10073000D5D5D4D4D4D3D3D3D2D2D1D1D1D0D0D093
:10074000CFCFCFCECECDCDCDCCCCCCCBCBCBCACAE0
:10075000C9C9C9C8C8C8C7C7C7C6C6C6C5C5C5C42C
:10076000C4C4C3C3C2C2C2C1C1C1C0C0C0BFBFBF75
:10077000BEBEBEBDBDBDBCBCBCBBBBBBBABABAB9BC
:10078000B9B9B8B8B8B7B7B7B6B6B6B5B5B5B5B400
:10079000B4B4B3B3B3B2B2B2B1B1B1B0B0B0B0AF40
:1007A000AFAFAEAEAEADADADACACACACABABABAA7F
:1007B000AAAAAAA9A9A9A8A8A8A8A7A7A7A6A6A6B9
:1007C000A6A5A5A5A4A4A4A4A3A3A3A3A2A2A2A1F1
:1007D000A1A1A1A0A0A0A09F9F9F9F9E9E9E9E9D25
:1007E0009D9D9D9C9C9C9C9B9B9B9B9A9A9A9A9955
:1007F0009999999898989898979797979696969682
:1008000096959595959494949494939393939392A9
:1008100092929292919191919190909090908F8FCD
:100820008F8F8F8E8E8E8E8E8E8D8D8D8D8D8C8CEE
:100830008C8C8C8C8B8B8B8B8B8B8A8A8A8A8A8A0A
:100840008A89898989898989888888888888888720
:100850008787878787878686868686868686858534
:100860008585858585858584848484848484848441
:10087000848383838383838383838383828282824B
:10088000828282828282828282818181818181814F
:10089000818181818181818181818080808080804E
:1008A0008080808080808080808080808080808048
:1008B0008080808080808080808080808080808038
:1008C0008080D40711241FBECFEFD8E0DEBFCDBF9C
:1008D00012E0A0E0B1E0E2E2F1E202C005900D9288
:1008E000A038B107D9F725E0A0E8B2E001C01D9219
:1008F000A839B207E1F714E0C2E6D4E004C02197BA
:10090000FE010E948910C136D107C9F70E94430831
:100910000C948F100C940000CF93DF9390E0FC01B7
:10092000E255FF4F249186569F4FFC018491882306
:10093000D1F090E0880F991FFC01E057FF4FA5917F
:10094000B491FC01EA57FF4FC591D491623071F424
:100950009FB7F8943C91822F809583238C93E881F4
:100960002E2B28839FBFDF91CF9108958FB7F894E6
:10097000EC912E2B2C938FBFF6CFAF92BF92CF92DC
:10098000DF92EF92FF920F931F93CF93DF936C014F
:100990007B018B01040F151FEB015E01AE18BF0830
:1009A000C017D10759F06991D601ED91FC910190E2
:1009B000F081E02DC6010995892B79F7C501DF91FA
:1009C000CF911F910F91FF90EF90DF90CF90BF904C
:1009D000AF900895FC01538D448D252F30E0842F76
:1009E00090E0821B930B541710F0CF960895019757
:1009F0000895FC01918D828D981761F0A28DAE0F44
:100A0000BF2FB11D5D968C91928D9F5F9F73928FCA
:100A100090E008958FEF9FEF0895FC01918D828DF6
:100A2000981731F0828DE80FF11D858D90E00895C3
:100A30008FEF9FEF0895FC01918D228D892F90E01B
:100A4000805C9F4F821B91098F73992708958FEACD
:100A500092E00E941B0521E0892B09F420E0822FFF
:100A6000089580E090E0892B29F00E9427058111EC
:100A70000C9400000895FC01A48DA80FB92FB11D9E
:100A8000A35ABF4F2C91848D90E001968F739927C4
:100A9000848FA689B7892C93A089B1898C918370A2
:100AA00080648C93938D848D981306C00288F3899B
:100AB000E02D80818F7D80830895EF92FF920F93C8
:100AC0001F93CF93DF93EC0181E0888F9B8D8C8DFA
:100AD00098131AC0E889F989808185FF15C09FB7EE
:100AE000F894EE89FF896083E889F98980818370B1
:100AF000806480839FBF81E090E0DF91CF911F9160
:100B00000F91FF90EF900895F62E0B8D10E00F5F80
:100B10001F4F0F731127E02E8C8D8E110CC00FB656
:100B200007FCFACFE889F989808185FFF5CFCE01EE
:100B30000E943B05F1CFEB8DEC0FFD2FF11DE35A29
:100B4000FF4FF0829FB7F8940B8FEA89FB89808171
:100B50008062CFCFCF93DF93EC01888D8823B9F0EB
:100B6000AA89BB89E889F9898C9185FD03C08081B8
:100B700086FD0DC00FB607FCF7CF8C9185FFF2CF35
:100B8000808185FFEDCFCE010E943B05E9CFDF914B
:100B9000CF9108950F931F93DC014D915D916D915D
:100BA0007C91139714960D911D912D913C9117975F
:100BB000400F511F621F731F4D935D936D937C9384
:100BC0001397CB0197701896ED91FC91E80FF91FE0
:100BD00084911F910F910895CF93DF931F92CDB70A
:100BE000DEB780918E0390918F038F3F9807F1F0CD
:100BF000FC01EA57FC4F20812983019790938F03D2
:100C000080938E0389818093000187FD0BC08091C2
:100C100000018770806480937C0080917A008064FA
:100C200080937A000F90DF91CF9108958FEFEBCFF3
:100C30008091000187FF04C00E94EC0510928102A0
:100C40000895FC0101900020E9F73197AF01481B9E
:100C5000590BBC018FEA92E00C94BD048F929F92D5
:100C6000AF92BF920F931F93CF93DF93CDB7DEB7B1
:100C7000A1970FB6F894DEBF0FBECDBF19A24230C8
:100C800008F44AE08E010F5D1F4F842E912CB12C89
:100C9000A12CA50194010E94470EE62FB901CA01BB
:100CA000EA30F4F4E05DD801EE938D01232B242B80
:100CB000252B79F790E080E0109719F0CD010E9484
:100CC0002106A1960FB6F894DEBF0FBECDBFDF910F
:100CD000CF911F910F91BF90AF909F908F900895EB
:100CE000E95CE1CF0C942106CF92DF92EF92FF9264
:100CF000CF93DF936C01990FEE08FF08F7FE19C040
:100D00006DE28FEA92E00E945D05EC01662777278D
:100D1000CB016C197D098E099F094AE00E942E06BD
:100D20008C0F9D1FDF91CF91FF90EF90DF90CF90C0
:100D300008954AE0C701B601DF91CF91FF90EF908F
:100D4000DF90CF900C942E061F920F920FB60F9249
:100D500011242F933F938F939F93AF93BF938091D1
:100D6000AB029091AC02A091AD02B091AE02309175
:100D7000AA0223E0230F2D3758F50196A11DB11DBE
:100D80002093AA028093AB029093AC02A093AD0291
:100D9000B093AE028091A6029091A702A091A80202
:100DA000B091A9020196A11DB11D8093A602909356
:100DB000A702A093A802B093A902BF91AF919F91FF
:100DC0008F913F912F910F900FBE0F901F9018950C
:100DD00026E8230F0296A11DB11DD2CF1F920F92BC
:100DE0000FB60F9211242F933F934F935F936F93FE
:100DF0007F938F939F93AF93BF93EF93FF938FEA6C
:100E000092E00E943B05FF91EF91BF91AF919F91BE
:100E10008F917F916F915F914F913F912F910F90A3
:100E20000FBE0F901F9018951F920F920FB60F9242
:100E300011242F938F939F93EF93FF93E091BF0221
:100E4000F091C0028081E091C502F091C60282FD5E
:100E50001BC090818091C8028F5F8F732091C9025F
:100E6000821741F0E091C802F0E0E155FD4F958F07
:100E70008093C802FF91EF919F918F912F910F90D6
:100E80000FBE0F901F9018958081F4CF1F920F9284
:100E90000FB60F9211242F933F938F939F93AF938D
:100EA000BF93EF93FF938091800291E08927809315
:100EB000800281112DC080919005E82FF0E0EE0FA7
:100EC000FF1FE057FC4F208131818F5F8093900599
:100ED000811118C080919205892780939205809195
:100EE000940590919505A0919605B091970501966E
:100EF000A11DB11D8093940590939505A09396052F
:100F0000B09397052C503F4F309389002093880071
:100F1000FF91EF91BF91AF919F918F913F912F9151
:100F20000F900FBE0F901F9018951F920F920FB643
:100F30000F9211242F933F934F935F936F937F935F
:100F40008F939F93AF93BF93EF93FF938091810211
:100F5000811119C080917A00806480937A0081E0C9
:100F600080938102FF91EF91BF91AF919F918F91FB
:100F70007F916F915F914F913F912F910F900FBE95
:100F80000F901F901895E09100018091780090914A
:100F90007900EE0FFF0BE657FD4F918380830E948F
:100FA000EC0510928102DECFEFEAF2E013821282AA
:100FB00088EE93E0A0E0B0E084839583A683B783B6
:100FC00081EE91E09183808385EC90E09587848722
:100FD00084EC90E09787868780EC90E0918B808B03
:100FE00081EC90E0938B828B82EC90E0958B848BEC
:100FF00086EC90E0978B868B118E128E138E148E5A
:1010000010929005109291051092920510929305FE
:101010008FEF9FEF90938F0380938E03EAE7F3E0C7
:101020008FE692E1A3E8B1E480879187A287B38736
:101030001482158216821782E0E7F3E01182108293
:101040008FEF93E093838283158214828CEB92E07E
:10105000978386838AE090E09187808782EC90E096
:1010600090936F0380936E03909365038093640362
:1010700090935B0380935A038CEC9CE09093510314
:10108000809350030895CF93DF93CDB7DEB7689771
:101090000FB6F894DEBF0FBECDBF789484B58260E2
:1010A00084BD84B5816084BD85B5826085BD85B50C
:1010B000816085BD80916E00816080936E0010928A
:1010C0008100809181008260809381008091810005
:1010D0008160809381008091800081608093800096
:1010E0008091B10084608093B1008091B0008160F4
:1010F0008093B00080917A00846080937A00809120
:101100007A00826080937A0080917A008160809377
:101110007A0080917A00806880937A001092C100F2
:10112000E091BF02F091C00282E08083E091BB02B7
:10113000F091BC021082E091BD02F091BE0280E10C
:1011400080831092C702E091C302F091C40286E04E
:101150008083E091C102F091C2028081806180832E
:10116000E091C102F091C202808188608083E091A9
:10117000C102F091C202808180688083E091C10247
:10118000F091C20280818F7D80838FEE91E00E947A
:1011900021068FE192E00E94210680917A0088600A
:1011A00080937A0090E080E061E070E020917E0022
:1011B000AB01082E01C0440F0A94EAF7242B2093B8
:1011C0007E0001968830910589F780917A008460CD
:1011D00080937A0080917A008D7F80937A0080914D
:1011E0007A008E7F80937A008FEF90E09093A30235
:1011F0008093A2028091800080918100809188007C
:101200009091890080916F0061E089E00E948C04D8
:101210001092870298E19093880282E0809389027D
:10122000909381008093800087EE91E0A0E0B0E091
:10123000EE24E394E09284029093830280938202EE
:10124000909387008093860089E18093810061E01C
:1012500089E00E948C048091800090918902892B02
:101260008068809380002091820230918302A4EFF5
:10127000B0E00E94690EEAE09695879577956795AC
:10128000EA95D1F770938900609388008091880275
:1012900090918402892B80938100E0926F0062E03C
:1012A00082E00E948C0462E083E00E948C0462E091
:1012B00084E00E948C0420E030E040E752E460913A
:1012C00082037091830380918403909185030E942F
:1012D000D00F0E94EA0E60937E0370937F03809389
:1012E00080039093810390919105809190059813CC
:1012F00006C090919305809192059813ACC380919C
:10130000A4029091A502009709F089C48091A202DD
:101310009091A3029093A5028093A402E4E7F0E0E9
:101320009491E0EBF0E08491ECE9F0E02491222349
:1013300009F4C0C3992359F0933009F4A4C308F009
:1013400097C3913009F4A5C3923009F4A6C3E22FE4
:10135000F0E0EE0FFF1FE859FF4FA591B4919C916B
:10136000892321E090E009F020E02D879E87E0911D
:101370008E03F0918F03E730F1054CF43196F09332
:101380008F03E0938E03EA57FC4F83E080838091C4
:1013900090029091910220918E0330918F0327301B
:1013A00031055CF42F5F3F4F30938F0320938E0302
:1013B0002A573C4F44E0D9014C932091920230913E
:1013C0009302821B930B9C012A5F3F4F2D30310506
:1013D000B8F097FD039695958795959587952091FB
:1013E000A0023091A102820F931F873FB7E29B07B3
:1013F0000CF465C3E1E0F0E0F093A102E093A002F9
:101400002091A0023091A102C90164EF71E00E9415
:101410005210788B6F87C9016AE070E00E94521009
:101420001B01CB0162E370E00E9452109E8B8D8BFA
:101430000F8518890F5F1F4F1A8309830F8518893D
:10144000000F111FF801EF54FE4FC080D1800D2C0A
:10145000000CEE08FF082C01990F66087708298117
:101460003A81220F331F388F2F8BF901EF54FE4F33
:1014700020813181032E000C440B550B2C193D09A2
:101480004E095F09C301B2010E94421022E330E01D
:1014900040E050E00E94150EDA01C9018C0D9D1D3F
:1014A000AE1DBF1D898B9A8BAB8BBC8BF801E957A6
:1014B000FE4FC080D1800D2C000CEE08FF08EF8994
:1014C000F88DE957FE4F20813181032E000C440B2B
:1014D000550B2C193D094E095F09C301B2010E9449
:1014E000421022E330E040E050E00E94150EC20EB0
:1014F000D31EE41EF51EDA86C986F801E35AFE4FB4
:1015000080809180092C000CAA08BB08EF89F88D17
:10151000E35AFE4F20813181032E000C440B550B02
:10152000281939094A095B09C301B2010E94421016
:1015300022E330E040E050E00E94150ECA01B901FC
:10154000680D791D8A1D9B1D28EE33E040E050E0B8
:101550000E94150ECA01B9010E941B0F4B015C01CC
:10156000F801E35DFE4F20813181C901330FAA0BE1
:10157000BB0B89839A83AB83BC83EF89F88DE35DD2
:10158000FE4F20813181032E000C440B550B281B8C
:10159000390B4A0B5B0BC301B2010E94421022E3DC
:1015A00030E040E050E00E94150E89819A81AB81C5
:1015B000BC81820F931FA41FB51F89839A83AB83BD
:1015C000BC83F801EF5FFE4F20813181C901330FE9
:1015D000AA0BBB0B8D839E83AF83B8870F89188DB1
:1015E0000F5F1E4FD8012D913C91032E000C440B30
:1015F000550B8D819E81AF81B885281B390B4A0B15
:101600005B0BC301B2010E94421022E330E040E0D4
:1016100050E00E94150E8D819E81AF81B885820FAA
:10162000931FA41FB51F8D839E83AF83B8878091BE
:1016300070039091710320917203309173038C15A4
:101640009D050CF04DC2D0927103C0927003C6018B
:10165000821B930B909375038093740340907603E1
:1016600050907703052C000C660877088091720370
:10167000909173038C01990F220B330B09871A8702
:101680002B873C872091780330917903032E000C3F
:10169000440B550B2419350946095709B601DD0CD1
:1016A000880B990BE984FA840B851C856E197F09D8
:1016B000800B910B0E9442102091700330917103B6
:1016C000032E000C440B550B2E193F09400B510BF8
:1016D0000E94150E69017A01C40CD51CE61CF71C8A
:1016E00020E030E040E055E4C501B4010E94D00F95
:1016F00020E030E040E85CE30E94D00F20E030E0E2
:1017000040E857E40E94D00F0E94EA0E609356030F
:1017100070935703809358039093590309891A894A
:10172000C801012E000CAA0BBB0B7DE0880F991F8E
:10173000AA1FBB1F7A95D1F780936A0390936B031E
:10174000A0936C03B0936D0385E0809F9001819F0F
:10175000300D1124A981BA812A9FC0012B9F900DC1
:101760003A9F900D1124092E000CAA0BBB0BEDE043
:10177000880F991FAA1FBB1FEA95D1F780936003BA
:1017800090936103A0936203B09363039601AD81CC
:10179000BE810E9466102B013C0182E593E00E940D
:1017A000CA05A82F880FBB0BA058BF4FA3019201F9
:1017B0000E943F0E672F782F892F992787FD9A95D2
:1017C00060939C0270939D0280939E0290939F026F
:1017D0008091940590919505A0919605B0919705FB
:1017E000BA2FA92F982F882720919005820F911D3D
:1017F000A11DB11D40917A0350917B0360917C0340
:1018000070917D0384179507A607B707C0F18091F3
:101810009A0290919B022816390659F030929B0249
:1018200020929A02C1010E9474068FE192E00E9408
:1018300021068091940590919505A0919605B0910F
:101840009705BA2FA92F982F882720919005820FEE
:10185000911DA11DB11D40917E0350917F036091A8
:10186000800370918103840F951FA61FB71F80937B
:101870007A0390937B03A0937C03B0937D030D8543
:101880001E85012B09F45CC082E292E00E94720680
:101890008F8598890E94740681E792E00E94720603
:1018A00087E292E00E9472068D899E890E947406EA
:1018B0008CE292E00E9472068EE292E00E94720632
:1018C00089899A890E9474068CE292E00E947206CD
:1018D0008EE392E00E947206C6010E9474068CE2BA
:1018E00092E00E94720681E592E00E947206A501D4
:1018F0009401C501B4010E943D10882309F4FDC084
:101900008EE592E00E9421068CE292E00E9472062F
:101910008AE692E00E94720689819A810E9474068A
:101920008CE292E00E94720683E792E00E947206C7
:101930008D819E810E9474068FE192E00E942106B3
:101940000E94180680904C0390904D03A0904E0387
:10195000B0904F03BB27B7FCBA95AB2D9A2D892DBC
:1019600020919C0230919D0240919E0250919F02D5
:10197000281B390B4A0B5B0BA0915003B09151030C
:101980000E94340EC72ED82EE92EFF24E7FCFA94CD
:10199000C80CD91CEA1CFB1CC0924C03D0924D030E
:1019A000E0924E03F0924F038CE593E00E94CA054B
:1019B0008090660390906703A0906803B0906903DD
:1019C00040916A0350916B0360916C0370916D03B9
:1019D000840E951EA61EB71E809266039092670322
:1019E000A0926803B09269035527F7FC5A954F2DD2
:1019F0003E2D2D2DA82F880FBB0B0E943F0E4BE0D4
:101A0000660F771F881F991F4A95D1F7860E971E7C
:101A1000A81EB91EC5019770E0916E03F0916F0387
:101A2000E80FF91FE49190919105A92FB0E0AA0F5A
:101A3000BB1FA057BC4F0E2E000CFF0BED93FC9369
:101A40009F5F90939105911106C08091930511E0DD
:101A500081278093930520E030E0232B09F443CCC9
:101A60000E942705882309F43ECC0E9400003BCC4D
:101A70009730B1F09830D1F0943009F068CC909163
:101A800080009F7D03C0909180009F77909380009D
:101A90005ECC94B59F7794BD5ACC94B59F7DFBCF17
:101AA0009091B0009F779093B00051CC9091B0008E
:101AB0009F7DF9CF01E010E01E870D8758CC1816E6
:101AC00019062CF49093A1028093A00299CC56EFB2
:101AD000E52E57E2F52EF092A102E092A00290CC02
:101AE00009851A85021713070CF0B8CDD09273033D
:101AF000C09272038C199D09ADCD75016401E89403
:101B0000F7F82FEF3FEF4FE75FE7C701B6010E94FD
:101B10003D1081110DC02FEF3FEF4FE75FE7C70189
:101B2000B6010E94E50E18161CF482E692E0EACE99
:101B30002FEF3FEF4FE75FE4C501B4010E94CB0FE9
:101B400018161CF486E692E0DDCE2FEF3FEF4FE74C
:101B50005FECC501B4010E94E50E87FDF3CF20E0E4
:101B600030E0A901C501B4010E94E50E87FF09C05C
:101B70006DE28FEA92E00E945D05B7FAB094B7F883
:101B8000B0942AE037ED43EA5BE3C501B4010E945B
:101B9000790E4B015C010E94EA0E6B017C010E94F0
:101BA000190F9B01AC01C501B4010E94780E4B01D5
:101BB0005C014AE0C701B6010E942E066EE28FEA80
:101BC00092E00E945D0520E030E040E251E4C50172
:101BD000B4010E94D00F4B015C010E94EA0E6B0120
:101BE000F12CE12C4AE0C701B6010E942E06C70184
:101BF000B6010E94190F9B01AC01C501B4010E94FE
:101C0000780E20E030E040E251E40E94D00F0E94C4
:101C1000EA0E90E080E04AE00E942E0675CE019721
:101C20009093A5028093A4028DCE052E97FB1EF4FF
:101C300000940E942C0E57FD07D00E94470E07FC0F
:101C400003D04EF40C942C0E509540953095219570
:101C50003F4F4F4F5F4F08959095809570956195D8
:101C60007F4F8F4F9F4F08950E94690EA59F900D43
:101C7000B49F900DA49F800D911D11240895B7FF6E
:101C80000C94340E0E94340E821B930B0895A1E233
:101C90001A2EAA1BBB1BFD010DC0AA1FBB1FEE1FE6
:101CA000FF1FA217B307E407F50720F0A21BB30B31
:101CB000E40BF50B661F771F881F991F1A9469F7AD
:101CC00060957095809590959B01AC01BD01CF0109
:101CD0000895A29FB001B39FC001A39F700D811D05
:101CE0001124911DB29F700D811D1124911D089525
:101CF0005058BB27AA270E94900E0C94910F0E9467
:101D0000830F38F00E948A0F20F039F49F3F19F4B6
:101D100026F40C94800F0EF4E095E7FB0C947A0FF8
:101D2000E92F0E94A20F58F3BA17620773078407BE
:101D3000950720F079F4A6F50C94C40F0EF4E09505
:101D40000B2EBA2FA02D0B01B90190010C01CA0175
:101D5000A0011124FF27591B99F0593F50F4503E20
:101D600068F11A16F040A22F232F342F4427585F12
:101D7000F3CF469537952795A795F0405395C9F72A
:101D80007EF41F16BA0B620B730B840BBAF09150E2
:101D9000A1F0FF0FBB1F661F771F881FC2F70EC081
:101DA000BA0F621F731F841F48F487957795679554
:101DB000B795F7959E3F08F0B0CF9395880F08F040
:101DC0009927EE0F9795879508950E94560F08F46E
:101DD00081E008950E94AA0F88F09F5798F0B92FCC
:101DE0009927B751B0F0E1F0660F771F881F991F50
:101DF0001AF0BA95C9F714C0B13091F00E94C40F1F
:101E0000B1E008950C94C40F672F782F8827B85F2E
:101E100039F0B93FCCF3869577956795B395D9F7A7
:101E20003EF490958095709561957F4F8F4F9F4FB1
:101E30000895E89409C097FB3EF4909580957095BD
:101E400061957F4F8F4F9F4F9923A9F0F92F96E906
:101E5000BB279395F695879577956795B795F1117B
:101E6000F8CFFAF4BB0F11F460FF1BC06F5F7F4F18
:101E70008F4F9F4F16C0882311F096E911C077232A
:101E800021F09EE8872F762F05C0662371F096E833
:101E9000862F70E060E02AF09A95660F771F881F02
:101EA000DAF7880F9695879597F90895990F0008A6
:101EB000550FAA0BE0E8FEEF16161706E807F9071C
:101EC000C0F012161306E407F50798F0621B730BB7
:101ED000840B950B39F40A2661F0232B242B252B38
:101EE00021F408950A2609F4A140A6958FEF811DDB
:101EF000811D089597F99F6780E870E060E008957C
:101F00009FEF80EC089500240A9416161706180611
:101F10000906089500240A941216130614060506ED
:101F20000895092E0394000C11F4882352F0BB0F7E
:101F300040F4BF2B11F460FF04C06F5F7F4F8F4FE1
:101F40009F4F089557FD9058440F551F59F05F3F1C
:101F500071F04795880F97FB991F61F09F3F79F0CB
:101F600087950895121613061406551FF2CF46954D
:101F7000F1DF08C0161617061806991FF1CF8695CF
:101F80007105610508940895E894BB2766277727B3
:101F9000CB0197F908950E94560F08F48FEF08952A
:101FA0000E94E30F0C94910F0E94830F38F00E945F
:101FB0008A0F20F0952311F00C947A0F0C94800F67
:101FC00011240C94C50F0E94A20F70F3959FC1F3CA
:101FD000950F50E0551F629FF001729FBB27F00DD7
:101FE000B11D639FAA27F00DB11DAA1F649F66272C
:101FF000B00DA11D661F829F2227B00DA11D621F7B
:10200000739FB00DA11D621F839FA00D611D221F34
:10201000749F3327A00D611D231F849F600D211D18
:10202000822F762F6A2F11249F5750409AF0F1F09B
:1020300088234AF0EE0FFF1FBB1F661F771F881F04
:1020400091505040A9F79E3F510580F00C947A0FB3
:102050000C94C50F5F3FE4F3983ED4F386957795D3
:102060006795B795F795E7959F5FC1F7FE2B880FAA
:10207000911D9695879597F908950E94560F880BA4
:10208000990B0895DB018F939F930E94340EBF91AB
:10209000AF91A29F800D911DA39F900DB29F900DB7
:1020A0001124089597FB072E16F4009407D077FDAE
:1020B00009D00E94751007FC05D03EF490958195DB
:1020C0009F4F0895709561957F4F08950E94690E06
:1020D000332312F48A1B9B0B0C9470100E94690E20
:1020E000B7FF0895821B930B0895AA1BBB1B51E1F8
:1020F00007C0AA1FBB1FA617B70710F0A61BB70B78
:10210000881F991F5A95A9F780959095BC01CD011C
:102110000895EE0FFF1F0590F491E02D0994F894B7
:02212000FFCFEF
:10212200FF0000010003000200070006000900038F
:102132000004000A00000003000200020001000285
:10214200000600070008000300000000000A000467
:102152000008000A00060004000100010006000653
:10216200000700010003000200010002000A000251
:102172000007000500080009000A000A00010032F9
:1021820000282358020A005A00F401E803C800F4A8
:102192000120031E005A006400C800BC021E005049
:1021A2000064002C010A0046002C016400320090F9
:1021B2000164005000BC021E003C000A005000C82E
:1021C200002C01640028000A003C005A00C80046A6
:1021D2000016004A011E002003C8001400C8006453
:1021E20000280014001E0050001400640090012C0E
:1021F20001140050005A0090011E0032000000003D
:10220200005D05BD04EA04AA051B05F9040D05538A
:1022120063694669526164696F5F536F756E645F8B
:1022220053796E74682E696E6F20322F31352F32DA
:1022320030323520546F6D4D634775697265000DFC
:102242000A0061203D200078203D200009006361E2
:1022520072726965725F66726571203D20004C443E
:1022620052315F63616C69627261746564203D2002
:10227200006D6F645F7370656564203D20006E6160
:102282006E00696E66006F7666002020465251200D
:102292003D20006B6E6F623276616C203D20000043
:00000001FF
